:020000040800F2
:10000000000005207D6D00087D1300087F130008A7
:100010008113000883130008851300080000000006
:10002000000000000000000000000000871300082E
:1000300089130008000000008B1300088D130008CE
:10004000CD6D0008CD6D0008CD6D0008CD6D0008A8
:10005000CD6D0008CD6D000895130008CD6D00082A
:10006000A1130008CD6D0008CD6D0008CD6D00080E
:10007000CD6D0008CD6D0008CD6D0008CD6D000878
:10008000CD6D0008CD6D0008CD6D0008CD6D000868
:10009000CD6D0008CD6D0008CD6D0008CD6D000858
:1000A000CD6D0008CD6D0008CD6D0008CD6D000848
:1000B000CD6D0008CD6D0008CD6D0008CD6D000838
:1000C000CD6D0008CD6D0008CD6D0008CD6D000828
:1000D000CD6D0008CD6D0008CD6D0008CD6D000818
:1000E000AD130008CD6D0008CD6D0008CD6D000882
:1000F000CD6D0008CD6D0008CD6D0008CD6D0008F8
:10010000CD6D0008CD6D0008CD6D0008CD6D0008E7
:10011000CD6D0008CD6D0008CD6D0008CD6D0008D7
:10012000E1130008F1130008CD6D0008CD6D000843
:10013000F9130008CD6D0008CD6D0008CD6D0008E5
:10014000CD6D0008CD6D0008CD6D0008CD6D0008A7
:10015000CD6D0008CD6D0008D1130008CD6D0008ED
:10016000CD6D0008CD6D0008CD6D0008CD6D000887
:10017000CD6D0008CD6D00080914000800000000D6
:10018000CD6D0008CD6D0008CD6D0008CD6D000867
:10019000CD6D0008CD6D0008CD6D0008CD6D000857
:1001A000CD6D0008CD6D000811140008CD6D00085C
:1001B000CD6D0008CD6D0008CD6D0008CD6D000837
:0801C000CD6D0008CD6D0008B3
:1001D0000348044B834202D0034B03B118477047D6
:1001E0000C0100200C010020000000000548064919
:1001F0000B1AD90F01EBA301491002D0034B03B135
:10020000184770470C0100200C010020000000007E
:1002100010B5064C237843B9FFF7DAFF044B13B14E
:100220000448AFF300800123237010BD200100209B
:1002300000000000D06D000808B5044B1BB1044954
:100240000448AFF30080BDE80840CFE7000000009D
:1002500024010020D06D000870B50D4E0D4D761BA9
:10026000B61006D0002455F8043B01349847A64246
:10027000F9D1094E094D761B06F0AAFDB61006D03D
:10028000002455F8043B01349847A642F9D170BDCB
:10029000DCBE0008DCBE0008E0BE0008DCBE0008D2
:1002A000844641EA000313F003036DD1403A41D381
:1002B00051F8043B40F8043B51F8043B40F8043B40
:1002C00051F8043B40F8043B51F8043B40F8043B30
:1002D00051F8043B40F8043B51F8043B40F8043B20
:1002E00051F8043B40F8043B51F8043B40F8043B10
:1002F00051F8043B40F8043B51F8043B40F8043B00
:1003000051F8043B40F8043B51F8043B40F8043BEF
:1003100051F8043B40F8043B51F8043B40F8043BDF
:1003200051F8043B40F8043B51F8043B40F8043BCF
:10033000403ABDD2303211D351F8043B40F8043B6F
:1003400051F8043B40F8043B51F8043B40F8043BAF
:1003500051F8043B40F8043B103AEDD20C3205D37F
:1003600051F8043B40F8043B043AF9D2043208D077
:10037000D2071CBF11F8013B00F8013B01D30B88E9
:1003800003806046704700BF082A13D38B078DD0C7
:1003900010F003038AD0C3F10403D21ADB071CBF99
:1003A00011F8013B00F8013B80D331F8023B20F803
:1003B000023B7BE7043AD9D3013A11F8013B00F83C
:1003C000013BF9D20B7803704B7843708B788370C4
:1003D0006046704788420DD98B1883420AD900EBDA
:1003E000020CBAB1624613F801CD02F801CD994270
:1003F000F9D170470F2A0ED8034602F1FF3C4AB1EB
:100400000CF1010C013B8C4411F8012B03F8012F76
:100410006145F9D1704740EA01039B0750D1A2F131
:10042000100370B501F1200C23F00F0501F1100E3F
:1004300000F11004AC441B095EF8105C44F8105C39
:100440005EF80C5C44F80C5C5EF8085C44F8085CF0
:100450005EF8045C44F8045C0EF1100EE64504F10D
:100460001004E9D1013312F00C0F01EB031102F07B
:100470000F0400EB031327D0043C24F003064FEADB
:10048000940C1E441C1F8E465EF8045B44F8045F07
:10049000B442F9D10CF1010402F0030203EB84032E
:1004A00001EB840102F1FF3C4AB10CF1010C013B6C
:1004B0008C4411F8012B03F8012F6145F9D170BD6F
:1004C00002F1FF3C03469BE72246EBE7830730B58A
:1004D00048D0541E002A3FD0CAB2034601E0013C76
:1004E0003AD303F8012B9D07F9D1032C2DD9CDB2B6
:1004F00045EA05250F2C45EA054536D9A4F1100239
:1005000022F00F0C03F1200EE6444FEA121C03F117
:10051000100242E9045542E9025510327245F8D101
:100520000CF1010214F00C0F03EB021204F00F0C9B
:1005300013D0ACF1040323F003030433134442F853
:10054000045B9342FBD10CF003042CB1CAB21C44EF
:1005500003F8012B9C42FBD130BD64461346002CAE
:10056000F4D1F9E703461446BFE71A46A446E0E78C
:10057000002958D030B551F8043C83B0002BA1F1CC
:100580000404B8BFE418019000F03AFB284A01982F
:10059000136833B1A3420DD9216804EB010C634504
:1005A0002FD06360146003B0BDE8304000F02ABB78
:1005B000A34210D81A465B68002BF9D1116802EBF0
:1005C000010C644519D02FD36360546003B0BDE8BB
:1005D000304000F017BB116802EB010CA44516D0A7
:1005E00022D8216804EB010C6345EDD11D685B68DE
:1005F0002944C4E900135460D5E723681944116005
:10060000D1E71D685B682944C4E90013CAE7246880
:1006100021445418A3421160C5D1D3E900432144B9
:10062000C2E90013BFE770470C230360BBE700BFBC
:100630003C010020F8B5CD1C25F0030508350C2D34
:1006400038BF0C25002D064623DBA94221D8254FB3
:1006500000F0D6FA3A6822B3144603E063682246F3
:10066000FBB11C4623685B1BF8D40B2B15D86368C1
:1006700094420CBF3B605360304600F0C3FA04F173
:100680000B00231D20F00700C21A01D01B1AA35033
:10069000F8BD0C2333600020F8BD23601C442560A6
:1006A000EAE77968C9B12946304600F00BFA431CE5
:1006B0000CD0C41C24F00304A04205D0211A3046FB
:1006C00000F000FA013001D02560D5E70C23304658
:1006D000336000F097FA0020F8BD304600F0F2F9E0
:1006E0007860E0E73C0100202DE9F84F92461F4674
:1006F0000A698B68DDF828909A42B8BF1A46CAF892
:10070000002091F843300C46064613B10132CAF876
:100710000020226891065DD5DAF800300233CAF86D
:100720000030226812F0060F11461ED1E168CB1A84
:10073000002BD8BF114618DD04F1190B4FF000084B
:1007400005E0E568DAF80030ED1A45450CDD0123D7
:100750005A4639463046C847013008F10108F0D101
:100760004FF0FF30BDE8F88F216894F84330003B2C
:1007700018BF01238A060AD5E1185A1C302081F8D7
:100780004300224494F8451082F84310023304F1E8
:10079000430239463046C8470130E1D0236803F0B0
:1007A0000603042B1DD0A3682269934225DD4FF078
:1007B00000089B1A98441A34002501E045451CDACC
:1007C0000123224639463046C847013005F101056C
:1007D000F4D1C5E712F0060F12D0003B18BF012379
:1007E000D5E7DAF80030E1682269C91AA3689342B4
:1007F00021EAE178DDDC0029DDDC0020BDE8F88FAE
:10080000E168DAF80030CB1A002BD8BF114693DC30
:10081000ABE700BF2DE9F0470C4684B09046227E3E
:100820000C990746994604F14300002A33D0A2F1FF
:100830005803DDB2202D67D8202B65D8DFE813F0F0
:10084000DE0064006400640064006400640064000E
:10085000640064006400A3006E006400640064002F
:1008600064006E00640064006400640021007F0086
:10087000C00064006400AE0064007F006400640097
:10088000E50023681A0640F104810B6862691D1DAA
:100890000D601B681A60002382462361CDF800902A
:1008A000434603AA21463846FFF71EFF013020D0F9
:1008B0002369524641463846C847013019D023685B
:1008C000E068039E9B0719D5831B002B16DD04F1FE
:1008D000190A002504E0E068039E831BAB420DDD8E
:1008E0000123524641463846C847013005F101050B
:1008F000F1D14FF0FF3004B0BDE8F087B042B8BF8F
:10090000304604B0BDE8F087012384F8422023611B
:1009100004F1420A002384F84330BFE723681A0633
:1009200002D45E0600F1C1800D682A6804350D60AE
:100930001546002A6BDBDFF884C10A2610E0236825
:100940001D0640F19C800B681D1D0D601D68DFF8C1
:100950006CC16F2A0CBF08260A26002384F8433096
:100960006268A260002A7FDB236823F0040323600F
:10097000002D5BD1002A79D18246082E65D0A0EBEC
:100980000A0020618AE70B680122186804330B60B3
:1009900004F1420A84F842002261BBE70B686268F6
:1009A000181D0860D3F800A00021504600F0D8F8C8
:1009B000002800F08180A0EB0A0060602061A9E7B8
:1009C000236843F0200323607822DFF8F4C084F822
:1009D00045200A68151D0D601D0643D4590641D5F2
:1009E0001588DE0744BF43F020032360002D44D167
:1009F000236823F0200323601026AEE7582384F8F1
:100A00004530DFF8B8C02368E3E72368DCE76268B5
:100A1000A2602D21002AC5F1000584F8431002DBF5
:100A200023F004032360DFF894C00A268246B5FB56
:100A3000F6F306FB13512A461CF801100AF8011DB3
:100A4000B2421D46F3D2082E99D12368D90796D514
:100A5000626823699A4292DC30230AF8013C0AF169
:100A6000FF3A8CE71568BCE7002DDFD19CF8003019
:100A700084F8423004F1420A7FE710266DE713F054
:100A8000400F0B6803F104050D600CBF1D681D8845
:100A90005DE713F0400F0B68626903F104050D6018
:100AA0001B6814BF1A801A60F5E60A68B2F9005094
:100AB00004320A602A463CE760687FE798BE000877
:100AC000ACBE000838B5074D0022044608462A602F
:100AD00000F046FC431C00D038BD2B68002BFBD037
:100AE000236038BD440100200CB410B59CB01EAB8F
:100AF0006FF00044CDE906140291084953F8042B25
:100B0000059102A90193049400F084F9029B00224C
:100B10001A701CB0BDE8104002B070470802FFFF19
:100B20000EB410B59DB06FF000411FABCDE90601CA
:100B30000491094953F8042B0290084C086801936A
:100B400002A9059400F066F9029B00221A701DB0FC
:100B5000BDE8104003B07047000000200802FFFF0E
:100B600001F0FF01102A2BDB10F0070F08D010F85E
:100B7000013B013A8B422DD010F0070F42B3F6D162
:100B8000F0B441EA012141EA014122F007047FF07B
:100B900000070023F0E80256083C85EA010586EAD2
:100BA000010685FA47F5A3FA87F586FA47F6A5FA0E
:100BB00087F68EB9EED1F0BC01F0FF0102F007021A
:100BC00032B110F8013B013A83EA010313B1F8D1C5
:100BD0000020704701387047002D06BF35460338A6
:100BE000073815F0010F07D1013015F4807F02BFDF
:100BF000013015F4C03F0130F0BC0138704700BF30
:100C0000704700BF704700BFF8B51446F9B1CAB1CC
:100C100006460D4600F018FAA04202D32F46384689
:100C2000F8BD21463046FFF705FD07460028F6D0FF
:100C300022462946FFF734FB30462946FFF798FC49
:100C40003846F8BD2746FFF793FC3846F8BDBDE8A7
:100C5000F8401146FFF7EEBC2DE9F0478F689F4240
:100C60000C461D46164638D88246888910F4906F87
:100C70000ED108683D462A463146FFF7ABFBA26815
:100C80002368D21B2B44A26023600020BDE8F087BC
:100C90004B69096903EB4308236808EBD878A3EB99
:100CA00001096B1C4FEA68084B444345424684BF28
:100CB00098464246430513D511465046FFF7BAFC05
:100CC000074608B321694A46FFF7EAFAA38923F4E5
:100CD000906343F08003A38107E008681F46CAE7DA
:100CE0005046FFF791FF074650B107EB0900A8EB0C
:100CF00009032761C4F81480A36020602F46BAE777
:100D000021695046FFF734FC0C23CAF80030A38950
:100D100043F040034FF0FF30A381B7E72DE9F04FD8
:100D2000936883B09146002B6ED017688D6880461B
:100D30000C460868083744E0A38913F4906F2ED05E
:100D4000D4E90415A0EB010A05EB450505EBD575C3
:100D50000AEB06006D100130A8422A4684BF054602
:100D60002A465B0537D511464046FFF763FC00284D
:100D70003BD0524621690190FFF792FAA289019B6C
:100D800022F4906242F08002A281A5EB0A0203EBFA
:100D90000A006561A260236120603546B24659466B
:100DA0005246FFF717FBA068D9F808102368451BC7
:100DB0008E1B03EB0A00A5602060C9F808601EB313
:100DC000083757E902B6002EFAD0B542AA46B3D981
:100DD0003546B246E3E74046FFF716FF03460028D4
:100DE000D3D121694046FFF7C3FB0C23C8F800307C
:100DF000A389002243F040034FF0FF30A381C9E9EB
:100E0000012203B0BDE8F08F0020C9F8040003B050
:100E1000BDE8F08F2DE9F04F92468A8915069DB006
:100E2000884681461C4603D50A69002A00F0EF80F7
:100E3000002209929AF800307E4D039420228DF80A
:100E4000292030228DF82A200126002B72D054460A
:100E500003E014F8013F002B76D0252BF9D1B4EB39
:100E60000A0B74D12278002A64D000234FF0FF329D
:100E7000CDE90523049307938DF853301A93013479
:100E800004E0049A06FA03F313430493A2460522EE
:100E900014F8011B2846FFF763FE431B0028F0D11E
:100EA000049BD80644BF20228DF8532019079AF8D6
:100EB000001044BF2B228DF853202A2954D1039AC5
:100EC00011680432002903927CDB07919AF8011023
:100ED0000AF1010A2E2959D0574C03222046FFF768
:100EE0003FFE40B1049B001B402404FA00F0034382
:100EF00004930AF1010A1AF8011B50488DF82810D2
:100F00000622FFF72DFE002862D04D4B002B52D059
:100F100003AA00924B4B424604A94846AFF3008017
:100F200007467A1C06D0099B3B4409939AF8003087
:100F3000002B8CD1B8F80C305B0654BF09984FF0E9
:100F4000FF301DB0BDE8F08FB4EB0A0BF2D05B466A
:100F5000524641464846FFF77FFE0130EAD0099BE2
:100F600022785B4409937EE7A1F13002092AB1D8C7
:100F7000079B1AF8011F03EB830302EB4303A1F164
:100F80003002092AF5D92E290793A5D19AF8011024
:100F90002A2927D1039B9AF802101A680592043374
:100FA000002A0AF102000393B8BF4FF0FF338246D4
:100FB000B8BF059390E7039B073323F0070308337B
:100FC0000393B0E7494243F00203079104937DE79E
:100FD00003AA00921B4B424604A94846FFF71AFC9D
:100FE00007469EE7A1F130020023092A05930AF182
:100FF000010A3FF671AF1AF8011F03EB830302EBFE
:101000004303A1F13002092AF5D9059364E7402191
:10101000FFF710FBC8F80000C8F8100018B1402214
:10102000C8F8142004E70C23C9F800304FF0FF3053
:1010300087E700BFC0BE0008C8BE0008CCBE0008DD
:1010400000000000590C000851F8040C0028A0F121
:101050000400BCBF0B58C018704700BF53B94AB951
:10106000002908BF00281CBF4FF0FF314FF0FF30B0
:1010700000F074B9ADF1080C6DE904CE00F006F88B
:10108000DDF804E0DDE9022304B070472DE9F04704
:10109000089D04468E46002B4DD18A42944669D95C
:1010A000B2FA82F252B101FA02F3C2F1200120FA3F
:1010B00001F10CFA02FC41EA030E94404FEA1C488D
:1010C000210CBEFBF8F61FFA8CF708FB16E341EA89
:1010D000034306FB07F199420AD91CEB030306F10F
:1010E000FF3080F01F81994240F21C81023E634430
:1010F0005B1AA4B2B3FBF8F008FB103344EA0344D4
:1011000000FB07F7A7420AD91CEB040400F1FF33E8
:1011100080F00A81A74240F207816444023840EA25
:101120000640E41B00261DB1D4400023C5E900435E
:101130003146BDE8F0878B4209D9002D00F0EF80E1
:101140000026C5E9000130463146BDE8F087B3FA14
:1011500083F6002E4AD18B4202D3824200F2F980FC
:10116000841A61EB030301209E46002DE0D0C5E9FF
:10117000004EDDE702B9FFDEB2FA82F2002A40F04B
:101180009280A1EB0C014FEA1C471FFA8CFE01264E
:10119000200CB1FBF7F307FB131140EA01410EFBF2
:1011A00003F0884208D91CEB010103F1FF3802D299
:1011B000884200F2CB804346091AA4B2B1FBF7F093
:1011C00007FB101144EA01440EFB00FEA64508D9B6
:1011D0001CEB040400F1FF3102D2A64500F2BB80F3
:1011E0000846A4EB0E0440EA03409CE7C6F1200742
:1011F000B34022FA07FC4CEA030C20FA07F401FA88
:1012000006F31C43F9404FEA1C4900FA06F3B1FB10
:10121000F9F8200C1FFA8CFE09FB181140EA014175
:1012200008FB0EF0884202FA06F20BD91CEB010112
:1012300008F1FF3A80F08880884240F28580A8F16A
:1012400002086144091AA4B2B1FBF9F009FB1011BC
:1012500044EA014100FB0EFE8E4508D91CEB01015A
:1012600000F1FF346CD28E456AD90238614440EAFD
:101270000840A0FB0294A1EB0E01A142C846A6467D
:1012800056D353D05DB1B3EB080261EB0E0101FA06
:1012900007F722FA06F3F1401F43C5E90071002663
:1012A0003146BDE8F087C2F12003D8400CFA02FCB9
:1012B00021FA03F3914001434FEA1C471FFA8CFEC9
:1012C000B3FBF7F007FB10360B0C43EA064300FBB9
:1012D0000EF69E4204FA02F408D91CEB030300F157
:1012E000FF382FD29E422DD9023863449B1B89B20E
:1012F000B3FBF7F607FB163341EA034106FB0EF397
:101300008B4208D91CEB010106F1FF3816D28B4243
:1013100014D9023E6144C91A46EA004638E72E460F
:10132000284605E70646E3E61846F8E64B45A9D207
:10133000B9EB020864EB0C0E0138A3E74646EAE776
:10134000204694E74046D1E7D0467BE7023B614424
:1013500032E7304609E76444023842E7704700BF8D
:10136000044A05491368002B08BF0B461844106057
:101370001846704748010020300E00207047FEE7F5
:10138000FEE7FEE7FEE770477047704708B503F0D9
:10139000BDFF08BD08B54FF4006003F06FFA08BD4B
:1013A00008B5042003F06AFA08BD000008B5074B31
:1013B0005B6913F4005F04D04FF4204003F05EFA41
:1013C00008BD4FF4006003F059FAF9E7003C014012
:1013D00008B5024B186F03F0F9FB08BD5801002057
:1013E00008B5024B186B03F0F1FB08BD3405002073
:1013F00008B5FFF7FDFF08BD08B5024BD86E03F036
:10140000E5FB08BDDC01002008B5FFF7FDFF08BDC6
:1014100008B505F091FC08BD10B40F4AD2F8883029
:1014200043F47003C2F888300C4B196841F0010195
:101430001960002098601C68094921401960094919
:101440005960196821F480211960D8604FF0006359
:1014500093605DF8044B704700ED00E000380240F7
:10146000FFFFF6FE1030002408B502F089F80020D6
:1014700008BD000038B50346134A106880B1012941
:101480000FD0DDB210224FF484612846FFF7ECFF45
:101490000446102240F222412846FFF7E5FF20448F
:1014A00038BDDDB24FF400724FF484612846FFF777
:1014B000DBFF04464FF4007240F222412846FFF75A
:1014C000D3FF2044ECE700BF5001002008B5002105
:1014D000FFF7D0FF08BD08B50021FFF7CBFF08BD1F
:1014E00038B505460121FFF7C5FF04460122022158
:1014F000E8B2FFF7B9FF204438BD000070B51D4BBE
:101500001C680CB9204670BD05460E460121FFF748
:10151000B1FF0446022EF5D0EDB24FF400724FF445
:1015200084612846FFF7A0FF04444FF4007240F2A4
:1015300022412846FFF798FF044400222D21284627
:10154000FFF792FF044400222E212846FFF78CFF6C
:101550000444002205212846FFF786FF04440022A8
:1015600011462846FFF780FF0444024B00221A6010
:10157000C8E700BF500100202DE9F04106460C46A7
:10158000642925D8C1EB8113464A82FB0312DF1779
:10159000C7EB6217FFB2444B1D6845B13E2F19D807
:1015A000002C3AD101213046FFF764FF05463F4B3E
:1015B0001B68002B73D0632C51D8C4EB0414240196
:1015C000384B83FB0423E417C4EB6314E4B247E015
:1015D0006427E0E700213046FFF74CFF0546F7B2ED
:1015E00040F27F121C213846FFF73EFF054440F2CF
:1015F0007F121D213846FFF737FF054440F27F1266
:1016000026213846FFF730FF054440F27F1227219C
:101610003846FFF729FF0544C9E700213046FFF7A8
:1016200029FF05465FFA86F847F4A0773A461C2161
:101630004046FFF719FF05443A461D214046FFF793
:1016400013FF05443A4626214046FFF70DFF0544A7
:101650003A4627214046FFF707FF0544A7E7EF2456
:10166000F6B244F4807422464FF480613046FFF7AE
:10167000FBFE0544224640F201413046FFF7F4FEEE
:101680000544224640F204413046FFF7EDFE054492
:10169000224640F205413046FFF7E6FE0544284663
:1016A000BDE8F0811F85EB51500100204C01002066
:1016B0002DE9F047804691469A46CFB201F47F4526
:1016C00001F054FF5FFA88F403224FF48171204641
:1016D000FFF7CAFE0646002240F617012046FFF734
:1016E000C3FE064400224FF481712046FFF7BCFE82
:1016F00006446C2239212046FFF7B6FE0644C5B3E6
:10170000132201212046FFF7AFFE0644322001F0EC
:1017100071FF002F00F0C780E74B01221A60022FF3
:1017200052D0032F74D097422AD040F203320521C1
:101730002046FFF799FE0644012240F2016120464F
:10174000FFF792FE0644012240F202612046FFF7B5
:101750008BFE0644002240F204612046FFF784FE1F
:101760000644002240F205612046FFF77DFE064454
:101770009CE0032201212046FFF776FE0644C5E7E0
:1017800040F60C4205212046FFF76EFE064400227B
:1017900040F201612046FFF767FE0644002240F256
:1017A00002612046FFF760FE0644022240F2046117
:1017B0002046FFF759FE0644022240F2056120460A
:1017C000FFF752FE064471E040F203320521204645
:1017D000FFF74AFE0644012240F201612046FFF76E
:1017E00043FE0644012240F202612046FFF73CFE20
:1017F0000644002240F204612046FFF735FE06440D
:10180000002240F205612046FFF72EFE06444DE01F
:10181000B5F5006F23D040F60F7205212046FFF783
:1018200023FE0644012240F201612046FFF71CFE20
:101830000644012240F202612046FFF715FE0644ED
:10184000022240F204612046FFF70EFE0644022207
:1018500040F205612046FFF707FE064426E040F609
:101860000F7205212046FFF7FFFD0644032240F2D8
:1018700001612046FFF7F8FD0644032240F20261B1
:101880002046FFF7F1FD0644032240F204612046A2
:10189000FFF7EAFD0644032240F205612046FFF708
:1018A000E3FD064402E0844B00221A60002D00F0A4
:1018B000E880824B01221A60B5F5407F77D032D89C
:1018C000B5F5807F00F0B080B5F5007F40F0D7809F
:1018D0004FF4436204212046FFF7C6FD0644DB2295
:1018E0004FF48A612046FFF7BFFD06444FF4C04223
:1018F00002212046FFF7B8FD064402224FF4C161E1
:101900002046FFF7B1FD0644022240F2096120465D
:10191000FFF7AAFD06440E224FF4E0612046FFF7D0
:10192000A3FD0644B0E0B5F5006F40F0A88040F696
:101930003C7204212046FFF797FD0644DB224FF45A
:101940008A612046FFF790FD0644DB224FF4886150
:101950002046FFF789FD064446F2A03202212046C8
:10196000FFF782FD0644022240F206612046FFF79F
:101970007BFD0644022240F207612046FFF774FD1A
:10198000064402224FF4C1612046FFF76DFD064474
:10199000022240F209612046FFF766FD06440D224F
:1019A0004FF4E0612046FFF75FFD06446CE0112232
:1019B00028212046FFF758FD0644352229212046DC
:1019C000FFF752FD064435222A212046FFF74CFD41
:1019D000064440F2033204212046FFF745FD064449
:1019E000DB224FF488612046FFF73EFD064446F2B5
:1019F000503202212046FFF737FD0644022240F212
:101A000006612046FFF730FD0644022240F20761DE
:101A10002046FFF729FD06440D224FF4E0612046E1
:101A2000FFF722FD06442FE04FF4437204212046C5
:101A3000FFF71AFD0644DB224FF488612046FFF7CA
:101A400013FD064446F2503202212046FFF70CFDFA
:101A50000644022240F206612046FFF705FD0644D7
:101A6000022240F207612046FFF7FEFC06440D22E9
:101A70004FF4E0612046FFF7F7FC064404E001362E
:101A800002E00E4B00221A60BAF5FA4F00F02981ED
:101A900026D8BAF57A5F00F01C8111D945F222638D
:101AA0009A4540F02E8143224FF404712046FFF7FF
:101AB000DBFC064438E000BF500100204C01002050
:101AC000BAF5FA5F29D042F611339A4540F01981F0
:101AD00013224FF404712046FFF7C6FC064423E0AE
:101AE0004BF680339A4500F00481D24B9A4507D1DA
:101AF000A3224FF404712046FFF7B6FC064413E01E
:101B00004AF644439A4540F0FC8073224FF4047136
:101B10002046FFF7A9FC064406E003224FF40471B7
:101B20002046FFF7A1FC0644B5F5006F00F0F180F8
:101B300044F210024FF440712046FFF795FC064432
:101B4000002240F202312046FFF78EFC06440A22B2
:101B50004FF402712046FFF787FC064401224FF440
:101B600000712046FFF780FC0644002F00F09880AB
:101B7000022F00F0D7804FF4407203212046FFF778
:101B800073FC0644002222212046FFF76DFC064428
:101B9000002223212046FFF767FC06444FF44072E1
:101BA00036212046FFF760FC064443F20302012180
:101BB0002046FFF759FC0644B5F5006F00F0E680BB
:101BC000052251212046FFF74FFC064443F2033221
:101BD00001212046FFF748FC0644222260212046CE
:101BE000FFF742FC064449F625724C212046FFF7D8
:101BF0003BFC06440F2001F0FDFC01222D21204674
:101C0000FFF732FC064401222E212046FFF72CFC70
:101C100006444FF44C7203212046FFF725FC06448E
:101C2000332254212046FFF71FFC064440F20110E6
:101C300001F0E0FCEE2260212046FFF715FC06448F
:101C4000C0224FF4C2612046FFF70EFC0644C022BA
:101C500040F211612046FFF707FC064410224FF4C2
:101C600084612046FFF700FC0644C02240F2126166
:101C70002046FFF7F9FB0644C02240F213612046DC
:101C8000FFF7F2FB0644102240F222412046FFF704
:101C9000EBFB064449464046FFF76EFC43F2033730
:101CA000A5B1B5F5007F18BFB5F5807F76D0B5F545
:101CB000006F00F08A80B5F5806F18BFB5F5407FE2
:101CC00000F0A28049464046FFF756FC3046BDE88A
:101CD000F08733224FF404712046FFF7C5FB06441A
:101CE00022E763224FF404712046FFF7BDFB064450
:101CF0001AE783224FF404712046FFF7B5FB064430
:101D000012E783224FF404712046FFF7ADFB06442F
:101D10000AE744F218024FF440712046FFF7A4FB93
:101D200006440DE74FF480722D212046FFF79CFBFF
:101D300006444FF480722E212046FFF795FB06449F
:101D40003D4B1B78B3B14FF401424FF488712046EC
:101D5000FFF78AFB0644384B00221A704FF4967046
:101D600001F048FC00224FF484612046FFF77CFB21
:101D7000064400E748F208124FF488712046FFF746
:101D800073FB0644322001F035FCEBE740F20522FC
:101D900051212046FFF768FB064417E747F013027E
:101DA00001212046FFF760FB064402224FF4C46184
:101DB0002046FFF759FB06444FF4605240F21141B0
:101DC0002046FFF751FB06447CE747F01302012150
:101DD0002046FFF749FB064402224FF4C461204627
:101DE000FFF742FB06444FF4C0524FF48261204695
:101DF000FFF73AFB06444FF4C05240F2114120462F
:101E0000FFF732FB06445DE70B2218212046FFF75F
:101E10002BFB06440B221A212046FFF725FB064424
:101E20004FF4C0524FF482612046FFF71DFB064479
:101E300048E700BF007701006800002038B502299C
:101E40004DD0032970D0012924D0C4B240F203320E
:101E500005212046FFF708FB0546012240F20161FB
:101E60002046FFF701FB0544012240F202612046B3
:101E7000FFF7FAFA0544002240F204612046FFF71A
:101E8000F3FA0544002240F205612046FFF7ECFA20
:101E9000284423E0C4B240F60C4205212046FFF757
:101EA000E3FA0546002240F201612046FFF7DCFA22
:101EB0000544002240F202612046FFF7D5FA0544AE
:101EC000022240F204612046FFF7CEFA05440222C6
:101ED00040F205612046FFF7C7FA284438BDC4B276
:101EE00040F2033205212046FFF7BEFA05460122E3
:101EF00040F201612046FFF7B7FA0544012240F2A3
:101F000002612046FFF7B0FA0544002240F2046166
:101F10002046FFF7A9FA0544002240F20561204659
:101F2000FFF7A2FA2844D9E7C4B240F60F720521A0
:101F30002046FFF799FA0546012240F2016120464A
:101F4000FFF792FA0544012240F202612046FFF7B2
:101F50008BFA0544022240F204612046FFF784FA1E
:101F60000544022240F205612046FFF77DFA28442D
:101F7000B4E7000008B5B1F5FA4F44D01CD8B1F56C
:101F80007A5F39D00AD945F22263994249D1432276
:101F90004FF40471C0B2FFF767FA2CE0B1F5FA5FB5
:101FA00023D042F6113399423BD113224FF40471EE
:101FB000C0B2FFF759FA1EE04BF68033994229D0A0
:101FC0001B4B994206D1A3224FF40471C0B2FFF714
:101FD0004BFA10E04AF64443994222D173224FF45F
:101FE0000471C0B2FFF740FA05E003224FF4047118
:101FF000C0B2FFF739FA08BD33224FF40471C0B202
:10200000FFF732FAF7E763224FF40471C0B2FFF72B
:102010002BFAF0E783224FF40471C0B2FFF724FAE1
:10202000E9E783224FF40471C0B2FFF71DFAE2E73B
:102030000077010008B500221146C0B2FFF714FA7C
:102040000023024A1360024A136008BD50010020B9
:102050004C01002008B501F091FA08BD10B5044606
:1020600001F084FA0021E0B201F0A6FA10BD0000F0
:1020700008B50548054B0360054A536823F48033CF
:10208000536004F024F808BDDC010020045C01402A
:10209000005C014008B50548054B0360054A536ADA
:1020A00023F48033536204F012F808BD5801002075
:1020B000245C0140005C01402DE9F04F83B0364DB7
:1020C000364B2B60DFF8E080D8F8043023F48033FF
:1020D000C8F804300192EA61686000266E612E63E0
:1020E0004FF0800BC5F834B0AE630127EF63AE60EC
:1020F0004FF400532B61AF614FF0400AC5F840A088
:102100004FF02009C5F844904FF48030A864EE6485
:102110004FF4802028656E65AE650420E865009167
:102120002966284603F0C8FE1D4C1E4B2360D8F8D4
:10213000243023F48033C8F82430019BE361032367
:10214000636066612663C4F834B0A663E763A76082
:102150002661A761C4F840A0C4F844904FF48033CE
:10216000A364E6644FF4802323656665A6650423B3
:10217000E365009A2266204603F09EFE2A681368F3
:1021800043F4803313602268136843F48033136090
:1021900003B0BDE8F08F00BFDC010020045C01400B
:1021A00058010020245C0140005C014038B5054620
:1021B0000C460C4B1B68DB688AB2014634209847FA
:1021C00068B9B4F5003F02D2C4F34F0201E04FF604
:1021D000FF722946044803F0EFFF002038BD0120BC
:1021E000FCE700BF54010020DC01002010B50446CC
:1021F000094803F08DFF094B1B689B692146342079
:10220000984738B9012C01D0002010BD012003F0FF
:102210008FF8F9E70120F8E7DC01002054010020E5
:1022200010B5084C2268136823F4803313602066CD
:10223000204603F041FE2268136843F480331360A4
:1022400010BD00BFDC01002008B504F025FD08BD6D
:1022500008B504F02FFD08BD2DE9F0478AB082468D
:102260004F4C636C43F400036364636C03F400033A
:102270000093009B236B43F480732363236B03F46D
:1022800080730193019B236B43F480732363236B5F
:1022900003F480730293029B236B43F480732363E4
:1022A000236B03F480730393039B802305934FF008
:1022B0000209CDF818904FF00008CDF81C800327D4
:1022C00008970A260996374D05A9284602F0CCF949
:1022D00020230593CDF81890CDF81C800897099617
:1022E00005A9284602F0C0F940230593CDF81890BF
:1022F000CDF81C800897099605A9284602F0B4F984
:1023000010230593CDF81890CDF81C8008970996F6
:1023100005A9284602F0A8F9236B43F48003236340
:10232000236B03F480030493049BDAF800201E4B14
:102330009A420AD000220E213C2001F071F93C2083
:1023400001F0A4F90AB0BDE8F087184C4FF0C06363
:1023500063604023A360C4F80C804FF48062226164
:102360004FF4006262614FF40052A2614FF4807238
:10237000E2614FF40032226204226262A762C4F872
:102380002C80C4F830800A4B2360CAF86C40C4F833
:1023900038A0204602F064FB204602F0FBFAC9E7B1
:1023A0000038024000200240045C0140C0020020CE
:1023B0007064024010B5A2B00C4601A801F0CEFF37
:1023C00042F6113245F222639C4218BF944203D078
:1023D0004AF644439C4211D14FF4801301934FF4C9
:1023E0008003119340F2AD1302930223049313234D
:1023F0000A9301A801F0DCFC22B010BD4FF4801359
:1024000001934FF4800311934FF4AC7302930723AD
:10241000049301230A9301A801F0CAFCECE7000031
:1024200008B58AB20146024803F042FF002008BD09
:102430005801002010B50446094803F069FE094B15
:102440001B689B6921463420984738B9012C01D07C
:10245000002010BD012002F06BFFF9E70120F8E732
:10246000580100205401002008B504F041FC08BDCB
:1024700008B504F043FC08BD38B50B4803F0DFFF96
:1024800005460A4803F0DBFF0446122D18BF022D53
:1024900004D0222C18BF022C03D038BD04F018FC45
:1024A000F7E704F031FCF8E7DC01002058010020D8
:1024B000F0B58BB005463B4C636C43F4000363649A
:1024C000636C03F400030193019B236B43F040030F
:1024D0002363236B03F040030293029B4FF480635A
:1024E0000593022606960027079708960A23099364
:1024F00005A92D4802F0B8F8236B43F0800323634D
:10250000236B03F080030393039B4FF40043059375
:1025100006970797089605A9244802F0A5F8236BAB
:1025200043F480032363236B03F480030493049B2D
:102530002A681F4B9A4211D000220F21462001F039
:102540006FF8462001F0A2F800220F21282001F0A8
:1025500067F8282001F09AF80BB0F0BD154C6760C1
:10256000A760E7604FF4806222614FF4006262610D
:102570004FF40052A2614FF48072E2614FF40032D6
:10258000226267620322A262E76227630A4B23602A
:102590002C67A563204602F063FA204602F0FAF9A0
:1025A000CAE700BF0038024000180240001C024089
:1025B000245C014060020020B8640240B0F5007F56
:1025C00001D001207047F8B504460E461546FFF7C6
:1025D00061FDFFF74DFD1D4F002229463846FFF7EC
:1025E000E9FE1B4B3B60384603F029FFA0B11948B8
:1025F000194B036003F023FF98B12A460A210020FB
:10260000FFF75AFD154B9B683420984748F6941302
:1026100098420BD00120F8BD00213846FFF748FF53
:10262000E5E700210B48FFF717FEE6E70B4FFB6AD3
:10263000342098470A4B1F603F682B46642244EAC7
:1026400006013420B8470020E5E700BF580100200C
:10265000245C0140DC010020045C01406C0000208F
:10266000540100202DE9F04182B005460E46174680
:1026700098461B4B4FF440325A601A4B1B681A4C59
:102680004FF0340C0CFB034CDCF84830022B0DD01F
:10269000134B00229A601248089BC360134B0360DF
:1026A00002F0CCFB30B102B0BDE8F0810C4B02224D
:1026B0009A60F0E729460A4802F04AFD0028F2D164
:1026C000CDF800803B4632460999054802F0E4FB0C
:1026D0000028E8D10A21024802F0FAFBE3E700BF34
:1026E0003C030020200300207C03002000B00240B7
:1026F000F0B583B005460E46174614484FF48032B5
:10270000426000248460C4600463FF224263C362A9
:1027100084620F4B036002F091FB08B103B0F0BD7F
:1027200001210A4802F014FD0028F7D1012300938B
:102730003B4632462946054802F0AEFB0028EDD163
:102740000A21024802F0C4FBE8E700BF3C03002076
:1027500000B00240034B1A68034B342101FB0233E3
:10276000186E7047200300207C030020034B1A687A
:10277000034B342101FB0233586E704720030020C5
:102780007C03002070B58EB004460E4600250195EE
:10279000FFF7E0FF02900395FFF7E8FF049005952F
:1027A0000A96FF23069307958DF834508DF835501F
:1027B0008DF836504FF4C063089307230993FFF751
:1027C000C9FF0B90FFF7D2FF0C90224601A90A48DF
:1027D00003F0FCFA094A04EB440302EB83034FF0D5
:1027E000FF3159600649996004EB44044FF07F4380
:1027F00042F824300EB070BD7C030020240300207A
:10280000AC000020014B1860704700BF200300207F
:10281000034B1B6803EB4303024A42F82300704753
:102820002003002024030020044B1B6803EB430318
:10283000034A02EB83035860704700BF2003002067
:1028400024030020044B1B6803EB4303034A02EB01
:1028500083039860704700BF2003002024030020FA
:10286000044B1B6803EB43039A00034B1344986823
:10287000704700BF2003002024030020F0B583B080
:1028800005460B4B1E680B4B342202FB0633DF6DF3
:10289000FFF760FF0446FFF769FF0346019500223A
:1028A0000092224639463046FFF7DCFE03B0F0BD09
:1028B000200300207C0300202DE9F04182B0054672
:1028C00088461746174B1C68174B342202FB04330B
:1028D0009B6C022B1AD0144B342202FB0433DE6DA6
:1028E000FFF738FF00FB085106EB810104EB4402BF
:1028F0000E4B53F8223001930023009301233A46F4
:102900002046FFF7AFFE02B0BDE8F081064B02FBA8
:102910000433DE6DFFF71EFF00FB085106EB41019B
:10292000E4E700BF200300207C03002024030020F4
:102930002DE9F04182B0054688461746184B1C68C1
:10294000184B342202FB04339B6C022B1DD0154B19
:10295000342202FB0433DE6DFFF7FCFE00FB08555A
:1029600006EB8505FFF7F6FE04EB44020E4B53F829
:1029700022300193013800903B460122294620462F
:10298000FFF770FE02B0BDE8F081064B02FB043396
:10299000DE6DFFF7DFFE00FB085506EB4505E1E7BE
:1029A000200300207C03002024030020F8B5044607
:1029B0000D4617461E46FFF77FFFA9193A4689B212
:1029C0002046FFF779FF324629462046FFF7B0FF41
:1029D000E0193246294680B2FFF7AAFFF8BD000091
:1029E000F8B504460D461646104B1A68104B3421B4
:1029F00001FB02339B6C022B0BD00D4B342101FBEE
:102A00000232D76DFFF7A6FE00FB054447F82460AD
:102A1000F8BD074B01FB0232D76DFFF79BFE00FBB1
:102A20000544B6B227F81460F2E700BF2003002087
:102A30007C0300202DE9F04F83B081460E460092C2
:102A4000344B1B6803EB4303334A02EB83039B685D
:102A5000DA8801929D8805F1070B4FEAEB0B4FEAEC
:102A6000CB085FFA88F8EBB2A8EB03085FFA88F8A6
:102A70004FF0000A34E0009AD75C002414E000997B
:102A8000CB5C577847EA0327F7E7224B1B6803EB39
:102A90004303214A02EB830309EB04005A683146E1
:102AA00080B2FFF79DFF0134A54215D92B1B43448B
:102AB000013B012202FA03F33B42E6D0154B1B68AF
:102AC00003EB430309EB0400134A52F82320314679
:102AD00080B2FFF785FFE6E70136B6B20AF1010AD8
:102AE000019B534512D90AFB0BF3009A1A44BBF120
:102AF000010FC0D0BBF1020FC1D00099CB5C577859
:102B00003F0247EA034793781F43B6E703B0BDE8A7
:102B1000F08F00BF200300202403002038B50B4BAA
:102B20001B6803EB43030A4C04EB83039C68256892
:102B3000A2F12003E28802FB03F3A2880732D2103D
:102B400002FB0352FFF776FF38BD00BF20030020D1
:102B5000240300202DE9F04104460E461546984610
:102B60009446002700E001371CF8012B002AFAD117
:102B7000FFF7F0FD2A4B1B6803EB4303294A02EBE6
:102B800083039B689B88B0FBF3F0B8F1010F07D07B
:102B9000B8F1020F0CD023B2002B3EDD002721E05C
:102BA000C01B00FB03F3C3F34F031C44A4B2F2E7C2
:102BB000C01B10FB03F39BB21C1BA4B2EBE7424605
:102BC00031462046FFF7AAFF154B1B6803EB430372
:102BD000144A02EB83039B6898880444A4B201352D
:102BE0000137BFB295F80080FFF7B4FD0C4B1B68AE
:102BF00003EB43030B4A02EB83039B689A8802FBB7
:102C000017039BB2B8F1000118BF0121934238BFEE
:102C100000210029D3D1BDE8F0810124BEE700BF27
:102C2000200300202403002038B505460C46FFF79A
:102C300017FEC38813FB05F10323224689B2002047
:102C4000FFF788FF38BD00002DE9F84F82468B461C
:102C50001446967AD37A06EB0326137B06EB0346DB
:102C6000537B06EB0366977CD37C07EB0327137D2E
:102C700007EB0347537D07EB036792F81680D37D7C
:102C800008EB0328137E08EB0348537E08EB036828
:102C900092F81C90537F09EB03291C4B1A681C4BBC
:102CA000342101FB0233DD6DFFF754FD0BFB00AA5D
:102CB00005EB8A05A9F12003072B06D9A9F110031A
:102CC000072B0FD84FF0020A01E04FF0000A08F17D
:102CD000FF3307FB03F34FEAD90909FB03663444CA
:102CE00000260FE04FF0010AF1E753463A46294625
:102CF0002046FFF7FDFCFFF72DFD05EB800507FBE8
:102D0000194401364645F0D3BDE8F88F2003002072
:102D10007C0300202DE9F04383B005468846164623
:102D20001F461E4C226802EB42021D4B53F8220044
:102D3000FFF76EFD24681B4B342202FB04339B6CAF
:102D4000022B1ED0174B342202FB0433D3F85C90C5
:102D5000FFF700FD00FB085509EB8505FFF7FAFCBE
:102D600004EB44020E4B53F822300193801B009079
:102D70003B46324629462046FFF774FC03B0BDE8C7
:102D8000F083084B02FB0433D3F85C90FFF7E2FCBE
:102D900000FB085509EB4505E0E700BF20030020D4
:102DA000240300207C030020F0B58FB04A4B5A6CFE
:102DB00042F080625A645A6C02F080620092009A7B
:102DC0001A6B42F400021A631A6B02F400020192B9
:102DD000019A1A6B42F010021A631A6B02F0100289
:102DE0000292029A1A6B42F040021A631A6B02F0C6
:102DF00040020392039A1A6B42F480721A631A6BB0
:102E000002F480720492049A1A6B42F400721A63FC
:102E10001A6B02F400720592059A1A6B42F48062F2
:102E20001A631A6B02F480620692069A1A6B42F4D5
:102E300080721A631A6B02F480720792079A1A6BF7
:102E400042F480621A631B6B03F480630893089B4F
:102E50001023099302240A9400230B930C940E254B
:102E60000D9509A91D4801F0FFFB4FF48057099704
:102E70000A9409230D9309A9194801F0F5FB4FF4B1
:102E8000464309930A940D95164E09A9304601F060
:102E9000EBFB4EF6FF7309930A940D9509A91248AE
:102EA00001F0E2FBF72309930A940D950F4C09A951
:102EB000204601F0D9FB099701250A9509A930465A
:102EC00001F0D2FB082309930A9509A9204601F0D5
:102ED000CBFB0FB0F0BD00BF003802400010024035
:102EE0000018024000200240002402400028024056
:102EF00008B5064808230360C02343610523C36166
:102F00004FF48033C36200F053FF08BD2404002057
:102F100010B5254C282363610923A3613523E361A0
:102F20000B23236240F21B13A36240F2152363625A
:102F300040F21D13236340F23523E3620021204653
:102F4000FFF7D6FF4FF4F07323664FF48873636680
:102F5000002384F8343084F8353084F836306360E8
:102F6000A360E3602361114B2360204602F062FFFF
:102F7000A0B10D4802F0B0FE01224FF480510C4880
:102F800001F075FC012208210A4801F070FC00F0F4
:102F90001FF90948FFF756FC002010BD002120460C
:102FA000FFF702FFE5E700BF7C0300200068014057
:102FB0000020024000280240AC0000202DE9F04330
:102FC00083B081464FF00008CDF80480204C0126E4
:102FD000266010276760A660C4F80C801D4D4FF670
:102FE000FF722146284603F04EFA304602F0A0F95F
:102FF000022323606760A660C4F80C804FF6FF725E
:103000002146284603F03FFA032323606760082324
:10301000A360C4F80C804FF6FF722146284603F0E7
:1030200032FA4FF408730193042323606760A660AB
:10303000019BE3604FF6FF722146284603F023FA16
:103040004946284603F040FA03B0BDE8F08300BFCC
:10305000A80400203405002070B58EB00646534BFE
:103060009A6B42F001029A639A6B02F0010201929C
:10307000019A1A6B42F480021A631A6B02F48002FE
:103080000292029A1A6B42F004021A631A6B02F05F
:1030900004020392039A1A6B42F008021A631A6B35
:1030A00002F008020492049A1A6B42F010021A63AA
:1030B0001A6B02F010020592059A1A6B42F0200278
:1030C0001A631A6B02F020020692069A1A6B42F0FB
:1030D00040021A631A6B02F040020792079A1A6BB9
:1030E00042F080021A631B6B03F080030893089B75
:1030F00002230A9301220B920C930C230D930823B5
:10310000099309A92A4801F0AFFA4CF20373099315
:1031100009A9284801F0A8FA4FF68373099309A971
:10312000254801F0A1FA4FF63F03099309A9234866
:1031300001F09AFA48F23313099309A9204801F0E3
:1031400093FA2823099309A91E4801F08DFA1E4C11
:10315000002565608023A3604FF40073E3604FF4A3
:10316000806323614FF4805363614FF48043A36114
:10317000E5614FF40033236265620323A362E562D5
:103180002563124B23603463A663204601F068FC7C
:10319000204601F0FFFB2A460F21382000F040FABC
:1031A000382000F073FA0EB070BD00BF0038024046
:1031B00000080240000C02400010024000140240CF
:1031C00000180240001C0240D40400201064024099
:1031D00038B51B4C1B4B23601B4D02232B60072172
:1031E00069600422AA60E9602B616B61AB61002118
:1031F0006160A160E26010232361402363614FF4AA
:103200008073A361E1614FF4006323624FF4805344
:103210006362A1622046FFF71FFF2946204603F0A4
:1032200012F948B1094B01221A7040F20360FFF70E
:10323000C5FE064B187838BD044B00221A70F4E71F
:1032400034050020400100A0B8040020B400002094
:1032500070B58AB0444B834243D0444C236B43F057
:1032600002032363236B03F002030393039B4FF4D6
:103270008073059312230693002507950223089374
:10328000042309933A4E05A9304601F0EDF94FF4B5
:103290000073059305A9304601F0E6F9236C43F469
:1032A00000132364236C03F400130493049B236A28
:1032B00043F400132362236A23F4001323622A4693
:1032C0000F211F2000F0ACF91F2000F0DFF92A4683
:1032D0000F21202000F0A4F9202000F0D7F90AB037
:1032E00070BD224C236B43F080032363236B03F0F8
:1032F00080030193019B80230593122306930025ED
:10330000079502230893042309931A4E05A9304612
:1033100001F0AAF94FF48073059305A9304601F036
:10332000A3F9236C43F400032364236C03F4000328
:103330000293029B236A43F400032362236A23F46B
:10334000000323622A460F21482000F069F9482033
:1033500000F09CF92A460F21492000F061F949202C
:1033600000F094F9BBE700BF680500200038024078
:1033700000040240001C024010B5044602F0CAFBE3
:10338000A0B90C4B9C4212D00B4B23600B4B6360DB
:103390000023A3600122E26023616361E361236291
:1033A0002046FFF755FF204602F08EF910BD044B72
:1033B0002360EBE76805002000540040322791406D
:1033C000005C004010B5044602F0DDF92046FFF72E
:1033D000D3FF10BD70B584B005460C464FF47A712A
:1033E0000291BDF82410019108990091214602F044
:1033F000E3F9064610B9304604B070BD21462846B0
:10340000FFF7E0FFF7E770B584B005460C464FF4D0
:103410007A710291BDF8241001910899009121461A
:1034200002F0A0FA064610B9304604B070BD21463D
:103430002846FFF7C7FFF7E700B1704730B587B000
:103440000E4B1A6B42F480721A631B6B03F4807389
:103450000093009B0225019501230293039303230C
:103460000493074C01A9204601F0FEF800222946EA
:10347000204601F0FCF907B030BD00BF0038024023
:103480000020024030B589B00C46054670B92C4B7F
:103490001A6B42F480721A631B6B03F480730093FF
:1034A000009BDCB1012C29D009B030BD01280AD025
:1034B000234B1A6B42F480721A631B6B03F4807304
:1034C0000293029BEDE71E4B1A6B42F480721A6363
:1034D0001B6B03F480730193019BE2E7194B33F8F4
:1034E000153003930023049305930223069303A945
:1034F000154B53F8250001F0B7F8D3E7114B33F81B
:10350000153003930023059302230693A5B14FF4CE
:103510000413049303A90C4B53F8250001F0A4F8FD
:103520000A4B13F9154000220F21204600F078F8CD
:10353000204600F0ABF8B7E74FF488130493E9E7AF
:10354000003802406C990008B80000206499000817
:1035500008B5044B33F81010034B53F8200001F06A
:103560007FF908BD6C990008B800002008B5024832
:10357000FFF702FF08BD00BF68050020704700008C
:1035800000B585B0ADF80E2093B21A0AADF80E2042
:103590001B021BB21343ADF80E30022301930DF151
:1035A0000E0200920A4601460248FFF713FF05B0DB
:1035B0005DF804FB6805002000B585B00A460023CD
:1035C000ADF80E30022301930DF10E01009101467A
:1035D0000748FFF718FFBDF80E30180200B240EAA6
:1035E000132080B2ADF80E0005B05DF804FB00BFFB
:1035F0006805002008B501F09BFE08BD0649CB68B0
:1036000023F4E0631B041B0C000200F4E06003439E
:10361000024A1A43CA60704700ED00E00000FA0554
:1036200000B5174BDB68C3F30223C3F1070CBCF1F1
:10363000040F28BF4FF0040C03F1040EBEF1060F77
:1036400014D9033B4FF0FF3E0EFA0CFC21EA0C01AB
:1036500099400EFA03F322EA03031943002807DB1B
:103660000901C9B2074B19545DF804FB0023E9E7CF
:1036700000F00F000901C9B2034B1954F4E700BF71
:1036800000ED00E000E400E014ED00E0002807DBBE
:1036900000F01F02400901239340024A42F8203003
:1036A000704700BF00E100E00138B0F1807F0BD22D
:1036B0004FF0E0235861054AF02182F823100020E2
:1036C000986107221A6170470120704700ED00E001
:1036D000BFF35F8F044B5A6A22F480325A62002291
:1036E000C3F89420704700BF00ED00E040F00100F7
:1036F000054BC3F894005A6A42F480325A62BFF311
:103700004F8FBFF36F8F704700ED00E04278164B8C
:10371000C3F898200378FBB14368134AC2F89C3081
:10372000017BC37A1B0643EA0173817A43EAC143F2
:10373000417B43EA8143817B43EA4143C17B43EAC6
:103740000143417A43EA0123017A43EA41030178C4
:103750000B43C2F8A0307047034B0022C3F89C20F3
:10376000C3F8A020704700BF00ED00E0002800F083
:10377000FF8170B582B00446036813F0010F29D0B1
:10378000954B9B6803F00C03042B1AD0924B9B685B
:1037900003F00C03082B0FD06368B3F5803F40D0D3
:1037A000002B54D18C4B1A6822F480321A601A68AC
:1037B00022F480221A6039E0874B5B6813F4800F93
:1037C000EAD0854B1B6813F4003F03D06368002BDD
:1037D00000F0D081236813F0020F74D07E4B9B68F9
:1037E00013F00C0F5ED07C4B9B6803F00C03082B8E
:1037F00053D0E368002B00F08980774A136843F0C8
:103800000103136001F08EFD0546734B1B6813F036
:10381000020F72D101F086FD401B0228F5D903206A
:10382000ADE16D4A136843F48033136063682BB3D2
:1038300001F078FD0546684B1B6813F4003FC9D1C1
:1038400001F070FD401B6428F5D9032097E1B3F522
:10385000A02F09D0604B1A6822F480321A601A68CF
:1038600022F480221A60E1E75B4B1A6842F480225E
:103870001A601A6842F480321A60D7E701F052FDEC
:103880000546554B1B6813F4003FA3D001F04AFDD9
:10389000401B6428F5D9032071E14F4B5B6813F49A
:1038A000800FA6D14C4B1B6813F0020F03D0E368C6
:1038B000012B40F06181484A136823F0F803216925
:1038C00043EAC1031360236813F0080F46D063690D
:1038D00083B3414A536F43F00103536701F022FD64
:1038E00005463D4B5B6F13F0020F37D101F01AFD17
:1038F000401B0228F5D9032041E1374A136823F021
:10390000F803216943EAC1031360DCE7324A136814
:1039100023F00103136001F005FD05462E4B1B68E3
:1039200013F0020FCFD001F0FDFC401B0228F5D9A7
:10393000032024E1284A536F23F00103536701F069
:10394000F1FC0546244B5B6F13F0020F06D001F02B
:10395000E9FC401B0228F5D9032010E1236813F08D
:10396000040F7DD01C4B1B6C13F0805F1ED11A4BD3
:103970001A6C42F080521A641B6C03F0805301935E
:10398000019B0125154B1B6813F4807F10D0A368A1
:10399000012B25D0002B3BD10F4B1A6F22F00102D7
:1039A0001A671A6F22F004021A671EE00025E9E781
:1039B0000A4A136843F48073136001F0B3FC0646AF
:1039C000064B1B6813F4807FE1D101F0ABFC801B38
:1039D0006428F5D90320D2E000380240007000408E
:1039E0006E4A136F43F001031367A36833B301F00A
:1039F00099FC0646694B1B6F13F0020F2FD101F0A3
:103A000091FC801B41F288339842F3D90320B6E041
:103A1000052B09D0614B1A6F22F001021A671A6F49
:103A200022F004021A67E0E75C4B1A6F42F00402CE
:103A30001A671A6F42F001021A67D6E701F072FCAA
:103A40000646564B1B6F13F0020F08D001F06AFCBC
:103A5000801B41F288339842F3D903208FE0FDB9EF
:103A6000A369002B00F08A804C4A926802F00C0295
:103A7000082A58D0022B19D0484A136823F08073C3
:103A8000136001F04FFC0446444B1B6813F0007FA9
:103A900047D001F047FC001B0228F5D903206EE057
:103AA0003E4A136C23F080531364D9E73B4A1368F2
:103AB00023F08073136001F035FC0546374B1B681B
:103AC00013F0007F06D001F02DFC401B0228F5D931
:103AD000032054E0E369226A1343626A43EA8213D3
:103AE000A26A5208013A43EA0243E26A43EA0263E5
:103AF00043F00053294A5360136843F08073136006
:103B000001F010FC0446254B1B6813F0007F06D122
:103B100001F008FC001B0228F5D903202FE000204B
:103B20002DE000202BE01D4A5268012B29D002F421
:103B30008003E1698B4226D102F03F03216A8B4268
:103B400023D1616A47F6C0731340B3EB811F1ED1C6
:103B500002F44031A36A5B08013BB1EB034F18D17B
:103B600002F07062E36AB2EB036F14D1002006E04A
:103B700001207047012002E0012000E0002002B097
:103B800070BD0120FBE70120F9E70120F7E70120E4
:103B9000F5E70120F3E70120F1E700BF003802401C
:103BA00008B5254B9B6803F00C03042B3FD0082B72
:103BB0003FD1214B5A6802F03F025B6813F4800F3B
:103BC00012D01D4B5968C1F388111C480023A1FB7A
:103BD0000001FDF743FA184B5B68C3F3014301335F
:103BE0005B00B0FBF3F025E0134B5968C1F3881C70
:103BF0004FEA4C11B1EB0C006EEB0E0E4FEA8E1338
:103C000043EA90638101091A63EB0E03DB0043EA88
:103C10005173C90011EB0C0C43F10003990200230E
:103C20004FEA8C2041EA9C51FDF718FAD3E703488C
:103C300000E0034808BD00BF0038024040787D0125
:103C40000024F400002800F0A08070B50D46044662
:103C5000524B1B6803F00F038B420BD24F4A136881
:103C600023F00F030B431360136803F00F038B4221
:103C700040F08D80236813F0020F17D013F0040F6B
:103C800004D0474A936843F4E0539360236813F0E9
:103C9000080F04D0424A936843F460439360404A5B
:103CA000936823F0F003A1680B439360236813F03B
:103CB000010F31D06368012B20D0022B25D0384A68
:103CC000126812F0020F64D035498A6822F00302AC
:103CD00013438B6001F026FB0646314B9B6803F0D3
:103CE0000C036268B3EB820F16D001F01BFB801B44
:103CF00041F288339842F0D9032045E0284A1268FF
:103D000012F4003FE0D101203EE0254A126812F093
:103D1000007FD9D1012037E0204B1B6803F00F034F
:103D2000AB420AD91D4A136823F00F032B431360DB
:103D3000136803F00F03AB422DD1236813F0040F77
:103D400006D0174A936823F4E053E1680B4393606D
:103D5000236813F0080F07D0114A936823F46043D7
:103D6000216943EAC1039360FFF71AFF0C4B9B687C
:103D7000C3F303130B4AD35CD8400B4B18600B4BB7
:103D8000186801F087FA002070BD012070470120FB
:103D9000FAE70120F8E70120F6E700BF003C024007
:103DA00000380240486E000864000020C80000206F
:103DB000F0B583B00446066816F001060DD0A74B97
:103DC0009A6822F400029A609A68416B0A439A60EA
:103DD000436B002B00F039810026256815F400257F
:103DE00011D09E4AD2F88C3023F44013E16B0B4380
:103DF000C2F88C30E36BB3F5801F00F02881002BF4
:103E000000F027810025236813F4801F0FD0934A08
:103E1000D2F88C3023F44003216C0B43C2F88C3071
:103E2000236CB3F5800F00F0168103B901252368D8
:103E300013F0807F00D0012613F0200F40F0108196
:103E4000236813F0100F0CD0844BD3F88C2022F091
:103E50008072C3F88C20D3F88C20A16B0A43C3F87E
:103E60008C20236813F4804F08D07C4AD2F890301D
:103E700023F44033616E0B43C2F89030236813F48F
:103E8000004F08D0754AD2F8903023F44023A16E39
:103E90000B43C2F89030236813F4803F08D06F4A78
:103EA000D2F8903023F44013E16E0B43C2F8903007
:103EB000236813F4003F08D0684AD2F8903023F406
:103EC0004003216F0B43C2F89030236813F0400F7A
:103ED00008D0624AD2F8903023F00303616C0B43A0
:103EE000C2F89030236813F0800F08D05B4AD2F8F4
:103EF000903023F00C03A16C0B43C2F89030236880
:103F000013F4807F08D0554AD2F8903023F0300364
:103F1000E16C0B43C2F89030236813F4007F08D0A3
:103F20004E4AD2F8903023F0C003216D0B43C2F803
:103F30009030236813F4806F08D0484AD2F890304C
:103F400023F44073616D0B43C2F89030236813F47F
:103F5000006F08D0414AD2F8903023F44063A16D3D
:103F60000B43C2F89030236813F4805F08D03B4ABB
:103F7000D2F8903023F44053E16D0B43C2F89030F7
:103F8000236813F4005F08D0344AD2F8903023F449
:103F90004043216E0B43C2F89030236813F4800F26
:103FA00008D02E4AD2F8903023F08063A16F0B43E3
:103FB000C2F89030236813F4001F0DD0274AD2F8BE
:103FC000903023F00063E16F0B43C2F89030E36F51
:103FD000B3F1006F00F0AA80236813F0080F00D03F
:103FE000012513F4802F08D01C4AD2F8903023F01A
:103FF0004073616F0B43C2F89030236813F4000FD5
:1040000009D0164AD2F8903023F08053D4F88010AB
:104010000B43C2F8903026B9236813F0007F00F0FC
:1040200005810E4A136823F08063136001F07AF96A
:1040300006460A4B1B6813F0006F79D001F072F945
:10404000801B6428F5D90320F3E00126C5E601268C
:10405000D5E60125D7E60126E7E600BF0038024095
:104060007F4B1A6C42F080521A641B6C03F0805331
:104070000193019B7B4A136843F48073136001F042
:1040800051F90746774B1B6813F4807F06D101F086
:1040900049F9C01B6428F5D90320CAE0704B1B6F97
:1040A00013F4407315D0226B02F440729A4210D080
:1040B0006B4B1A6F22F44072196F41F4803119670B
:1040C000196F21F4803119671A671B6F13F0010F04
:1040D00012D1236B03F44072B2F5407F1DD0604AC9
:1040E000936823F4F81393605D490B6F226BC2F35E
:1040F0000B0213430B67A3E601F014F90746584B74
:104100001B6F13F0020FE4D101F00CF9C01B41F258
:1041100088339842F3D903208BE05148826822F417
:10412000F812514919400A438260DDE7012553E73F
:10413000236813F0010F13D0636B8BB9484AD2F890
:104140008430D2F88410606803F4403343EA80136B
:1041500001F070610B43A16843EA0173C2F8843037
:10416000236813F4002F03D0E26BB2F5801F06D052
:1041700013F4801F1ED0236CB3F5800F1AD1384A78
:10418000D2F88430D2F88410606803F4403343EAF4
:104190008013E06843EA006301F0E0410B43C2F89A
:1041A0008430D2F88C3023F01F03616A01390B434D
:1041B000C2F88C30236813F0807F11D0284AD2F8DF
:1041C0008400D2F88410666823691B0443EA8613CE
:1041D00000F07060034301F0E0410B43C2F884300B
:1041E000236813F0007F0DD0626823691B0443EA43
:1041F0008213E26843EA0263A26843EA0273184A40
:10420000C2F88430164A136843F08063136001F0EB
:1042100089F80646124B1B6813F0006F06D101F0B7
:1042200081F8801B6428F5D9032002E0012D02D01B
:10423000002003B0F0BD0A4A136823F080531360D6
:1042400001F070F80546064B1B6813F0005F0DD0B7
:1042500001F068F8401B6428F5D90320E9E700BFA6
:104260000038024000700040FFFCFF0F236813F489
:10427000002F01D0E26B22B113F4801F1DD0236CFC
:10428000DBB9354AD2F88830D2F88810606903F477
:10429000403343EA8013A06943EA006301F0E04140
:1042A0000B43C2F88830D2F88C3023F4F853A16A5B
:1042B000013943EA0123C2F88C30236813F4001F4C
:1042C00003D0E36FB3F1006F31D0236813F0080F10
:1042D00019D0214AD2F88810D2F88830606903F4E6
:1042E000403343EA801301F070610B43E16943EA14
:1042F0000173C2F88830D2F88C3023F44033E16A7D
:104300000B43C2F88C30144A136843F08053136097
:1043100001F008F80446104B1B6813F0005F19D138
:1043200001F000F8001B6428F5D9032081E70A4A50
:10433000D2F88800D2F888106569236A1B0443EA22
:10434000851300F07060034301F0E0410B43C2F8B5
:104350008830BAE700206CE700380240564B036013
:10436000564BD3F88420C2F388124260D3F88420DD
:10437000C2F301420261D3F88420C2F30362C26037
:10438000D3F88420C2F302728260D3F88820C2F38B
:1043900088124261D3F88820C2F301420262D3F846
:1043A0008820C2F303628261D3F88820C2F30272CC
:1043B000C261D3F88C2002F01F024262D3F88C2035
:1043C000C2F304228262D3F88C20C2F30142C2629B
:1043D000D3F88C2002F44012C263D3F88C2002F48C
:1043E000400202649A6802F400024263D3F890200B
:1043F00002F440324266D3F8902002F440228266F2
:10440000D3F8902002F44012C266D3F8902002F450
:1044100040020267D3F8902002F003024264D3F80E
:10442000902002F00C028264D3F8902002F0300257
:10443000C264D3F8902002F0C0020265D3F8902045
:1044400002F440724265D3F8902002F44062826523
:10445000D3F8902002F44052C265D3F8902002F4C1
:1044600040420266D3F8902002F040724267D3F8CF
:10447000902002F080628267D3F8902002F0006200
:10448000C267D3F8902002F08052C0F8802099686B
:1044900001F4F8111A6F02F440720A430263D3F870
:1044A0008C3013F0807F02D10023836370474FF07C
:1044B00080738363704700BFF1FFFF000038024044
:1044C0000246B0F5002F04D00020B2F5801F62D064
:1044D0007047614BD3F88C3003F44013B3F5801F61
:1044E0002ED0B3F5001F54D00BB10020EDE75A4B8E
:1044F0005B6813F4800F1BD1574B5B6803F03F0CD4
:10450000564BB3FBFCFC5449D1F88800C0F3036060
:10451000D1F88830C3F388130CFB03F3B3FBF0F33B
:10452000D1F88C00C0F304200130B3FBF0F0CCE7ED
:10453000494B5B6803F03F0C494BB3FBFCFCE2E7E3
:10454000454B5B6813F4800F1BD1434B5B6803F052
:104550003F0C424BB3FBFCFC3F49D1F88400C0F355
:104560000360D1F88430C3F388130CFB03F3B3FB6F
:10457000F0F3D1F88C0000F01F000130B3FBF0F035
:10458000A3E7354B5B6803F03F0C354BB3FBFCFCFA
:10459000E2E7344899E7304BD3F88C3003F440031A
:1045A000B3F5800F2DD0B3F5000F53D0002B8FD172
:1045B000294B5B6813F4800F1BD1274B596801F01E
:1045C0003F012648B0FBF1F1234BD3F88820C2F31A
:1045D0000362D3F88800C0F3881001FB00F0B0FB41
:1045E000F2F0D3F88C30C3F304230133B0FBF3F0C3
:1045F0007047194B596801F03F011948B0FBF1F1C0
:10460000E2E7154B5B6813F4800F1BD1124B59681E
:1046100001F03F011148B0FBF1F10F4BD3F88420BA
:10462000C2F30362D3F88400C0F3881001FB00F0EA
:10463000B0FBF2F0D3F88C3003F01F030133B0FB72
:10464000F3F07047044B596801F03F010448B0FB98
:10465000F1F1E2E703483BE7003802400024F400B0
:1046600040787D010080BB0000230F2B00F2EF801B
:1046700070B582B061E085685E000324B44025EA2D
:104680000405CC68B4402C438460456825EA0205E3
:104690004C68C4F300129A402A4342605BE0DC0895
:1046A000083450F8246003F0070295000F22AA4056
:1046B00026EA020E0A69AA4042EA0E0240F82420C5
:1046C0005DE0092200E0002202FA0EF22A430234E1
:1046D0005F4D45F824205F4A94686FEA0C0224EA93
:1046E0000C054E6816F4801F01D04CEA0405594CA5
:1046F000A560E46802EA04054E6816F4001F01D0C4
:104700004CEA0405534CE560646802EA04054E680F
:1047100016F4003F01D04CEA04054E4C6560246855
:1047200022404D6815F4803F01D04CEA0402494C08
:10473000226001330F2B00F2888001229A400C681E
:1047400004EA020C32EA0404F3D14C6804F00304D6
:10475000013C012C8FD94A6802F00302032A09D0D8
:10476000C4685D000322AA4024EA02048A68AA40C1
:104770002243C2604A6802F00302022A8FD0046812
:104780004FEA430E032202FA0EF224EA02044A68B8
:1047900002F0030202FA0EF2224302604A6812F4A7
:1047A000403FC6D02C4A546C44F480445464526C4C
:1047B00002F480420192019A9C08A51C244A52F8F6
:1047C000255003F003024FEA820E0F2202FA0EF286
:1047D00025EA0205214A90423FF475AF02F5806256
:1047E000904222D002F58062904220D002F5806291
:1047F00090421ED002F5806290421CD002F5806289
:1048000090421AD002F58062904218D002F5806280
:10481000904216D002F58062904214D002F5806278
:1048200090423FF44EAF0A224EE701224CE70222AB
:104830004AE7032248E7042246E7052244E7062226
:1048400042E7072240E708223EE702B070BD70470A
:1048500000380140003C01400038024000000240A6
:104860000369194201D001207047002070470AB146
:1048700081617047090481617047000008B5054BEC
:104880005B69034200D108BD024B586102F0DCF8BD
:10489000F9E700BF003C014030B405682C6824F4FF
:1048A00080242C60046863608368402B05D0036813
:1048B00099600368DA6030BC704703689A600368E7
:1048C000D960F8E710B40168CAB2103A0A4BA3FBEA
:1048D00002431B09094CE35CC3655F2A07D9084BF7
:1048E0000B4004338365806D5DF8044B7047044BC7
:1048F0000B408365F7E700BFABAAAAAA749900082A
:1049000000FCFFFF836A826992B9012B0AD0022B57
:1049100002D00BB100207047C36A13F0807F28D10A
:1049200000207047C36AB3F1C07F24D000207047D5
:10493000B2F5005F09D0022B25D9032B25D1C36A1C
:1049400013F0807F23D100207047032B03D8DFE8CA
:1049500003F01404140A00207047C36A13F0807F28
:104960000DD100207047C36AB3F1C07F09D0002089
:1049700070470120704701207047012070470120D7
:1049800070470120704701207047002070470120C8
:104990007047000070B5044600F0C4FC002C5BD0EA
:1049A0000546022384F83530002384F83430226829
:1049B000136823F00103136023681A6812F0010FD3
:1049C0000AD000F0AFFC431B052BF5D9202363650B
:1049D000032084F8350070BD1A68204810406168D3
:1049E000A2680A43E1680A4321690A4361690A43EC
:1049F000A1690A43E1690A43216A0A430243616AE1
:104A000004291ED01A602668756925F00705636AB7
:104A10001D43042B07D1A36A1D43E36A1BB1204643
:104A2000FFF770FF90B975612046FFF74BFFE26D0D
:104A30003F239340836000206065012384F8353074
:104A4000C9E7E16A206B01430A43DBE74023636562
:104A5000012084F83500BEE70120BCE73F8010F05C
:104A600000282DD038B5054690F83500C0B2022890
:104A700025D02A68136823F0010313602B680024F3
:104A80001C602B685C602B689C602B68DC602B686A
:104A90001C612B6821225A612846FFF713FFEA6D3B
:104AA0003F2393408360EC632C646C64AC64EC64DF
:104AB0002C656C6585F8354085F83440204638BD56
:104AC0000120704738B50446856D90F83400012800
:104AD00030D0012084F8340094F83500C0B20128A9
:104AE00004D0002384F83430022038BD022084F83A
:104AF0003500002060652046FFF7CEFEE26D3F23C3
:104B00009340AB602268136843F016031360226879
:104B1000536943F080035361236C23B12268136807
:104B200043F0080313602268136843F00103136025
:104B30000020DAE70220D8E770B50446866D00F061
:104B4000F1FB94F83530DBB2022B06D0802363658D
:104B5000002384F83430012070BD054622681368B4
:104B600023F0160313602268536923F08003536116
:104B7000236CE3B12268136823F0080313602268F2
:104B8000136823F00103136023681B6813F0010FFF
:104B900011D000F0C7FB431B052BF5D9202363651B
:104BA000032084F83500002384F83430D4E7A36C64
:104BB000002BDFD1E3E7E26D3F239340B360012395
:104BC00084F83530002084F83400C5E7F0B583B0B0
:104BD000044600230193724B1D68724BA3FB0535FD
:104BE000AD0A876D3E68C26D08239340334210D0F2
:104BF00003681A6812F0040F0BD01A6822F004023E
:104C00001A60C26D08239340BB60436D43F00103FB
:104C10004365E26D01239340334209D02268526913
:104C200012F0800F04D0BB60636D43F00203636534
:104C3000E26D04239340334209D02268126812F0D7
:104C4000020F04D0BB60636D43F004036365E26D43
:104C500010239340334224D02268126812F0080FC8
:104C60001FD0BB6023681A6812F4802F0DD01B6818
:104C700013F4002F04D1236C9BB12046984710E019
:104C8000A36C73B1204698470BE01A6812F4807F3A
:104C900003D11A6822F008021A60236C0BB1204677
:104CA0009847E26D20239340334255D02268126822
:104CB00012F0100F50D0BB6094F83530DBB2052BEA
:104CC0000ED023681A6812F4802F33D01B6813F4B7
:104CD000002F2AD1636C002B3ED0204698473BE042
:104CE0002268136823F0160313602268536923F0C7
:104CF00080035361236CA3B12268136823F0080377
:104D00001360E26D3F239340BB60012384F835308C
:104D1000002384F83430236D002B3FD02046984781
:104D20003CE0A36C002BE7D1EBE7E36BA3B120469B
:104D3000984711E01A6812F4807F09D11A6822F0AE
:104D400010021A60012384F83530002384F83430CF
:104D5000E36B0BB120469847636DFBB1636D13F0B5
:104D6000010F17D0052384F835302268136823F02B
:104D700001031360019B01330193AB4204D8236804
:104D80001B6813F0010FF5D1012384F8353000239F
:104D900084F83430E36C0BB12046984703B0F0BD83
:104DA00064000020B5814E1B30B405686C6C04F0C3
:104DB000404C029C44EA03434CEA03036B640368DF
:104DC000DA634368B3F5403F03D00368D96030BC71
:104DD000704701F07F4C01F47F0301F47F45CAB2B4
:104DE00084689CB1012C0FD0022C12D0032C18D057
:104DF0004FEA1C7C1B0D2D0B190241EA051141EAFB
:104E00000C3141EA121101E021F07F4103689963FE
:104E1000DDE7DB0CAD0AD90241EA451141EAD201D6
:104E2000F4E74FEADC7CDB0CED0A990241EA45111C
:104E300041EACC3141EAD201E8E7000038B310B5CD
:104E4000044690F83930EBB1022384F839302268F7
:104E5000136823F4403361680B4313602268536B7B
:104E600023F00703A1680B4353632268116C094BBD
:104E70000B40E1680B4313640020E063012384F8D6
:104E8000393010BD80F8383001F05EFFDCE70120DA
:104E9000704700BF00C0FFFF10B582B0044690F815
:104EA0003800012812D0012084F83800022084F84C
:104EB0003900049800902046FFF776FF22681368B7
:104EC00043F001031360002002B010BD0220FBE795
:104ED00070B582B004460D460023019303681B6839
:104EE00013F0010F11D12268D369526A134313F0F2
:104EF000200F47D1236812229A60012384F83930A9
:104F0000002084F8380002B070BD00F00BFA0646AD
:104F100023685A6812F0020FE5D15A680192019A8B
:104F200012F0210F14D1B5F1FF3FF1D000F0FAF9E2
:104F3000801BA84201D8002DEAD1E36B43F0200387
:104F4000E363032084F83900002384F83830DAE77B
:104F5000019A12F0200F03D0E26B42F00202E263EA
:104F6000019A12F0010F03D0E26B42F00102E263FA
:104F700021229A60042384F83930002384F83830E1
:104F80000120C0E700F0CEF9064623685A6812F007
:104F9000100FAFD15A680192019A12F0290F14D163
:104FA000B5F1FF3FF1D000F0BDF9801BA84201D858
:104FB000002DEAD1E36B43F02003E363032084F880
:104FC0003900002384F838309DE7019A12F0080F69
:104FD00003D0E26B42F00402E263019A12F0200F68
:104FE00003D0E26B42F00202E263019A12F0010F79
:104FF00003D0E26B42F00102E26329229A600423AB
:1050000084F83930002384F8383001207BE770477A
:10501000704770B5044603685D681E6815F0010F9F
:1050200016D016F4807F13D01A6822F480721A60AA
:10503000C36B43F00103C363036801229A60042336
:1050400080F83930002380F83830436903B198473D
:1050500015F0200F18D016F4005F15D022681368E1
:1050600023F400531360236820229A60E36B43F01B
:105070000203E363042384F83930002384F83830D2
:1050800063690BB12046984715F0080F18D016F445
:10509000006F15D02268136823F40063136023683F
:1050A00008229A60E36B43F00403E363042384F86B
:1050B0003930002384F8383063690BB120469847B3
:1050C00015F0040F02D016F4806F20D115F0020FF6
:1050D00016D016F4007F13D02268136823F40073EF
:1050E0001360236802229A60E36BE363012384F870
:1050F0003930002384F8383023690BB120469847B3
:1051000015F0100F02D016F4805F0CD170BD22682C
:10511000136823F480631360236804229A60204696
:10512000FFF775FFD2E72268136823F480531360FA
:10513000236810229A60E36BE363012384F839301B
:10514000002384F838302046FFF762FFDEE70000D6
:1051500090F83830012B59D030B4012380F8383022
:10516000022380F8393000EB0113DA698B1C1B0134
:10517000C35842EA0343093A012A1ED98A1C00EBAC
:105180000212526843EA026341BB0468656A204A1E
:105190002A4013436362026800EB01139C69946127
:1051A000DB69093B012B10D9012380F8393000233A
:1051B00080F83830184630BC70478A1C00EB021269
:1051C000526802F07F421343DEE7023100EB011127
:1051D0004B68026823F07F439362E5E70468E56962
:1051E0000B4A2A401343E361026800EB01139C69F8
:1051F0001461DB69093B012BD6D8023100EB0111A8
:105200004B68026823F07F431362CDE702207047AA
:10521000F0FFFC0010B582B01B4B1A6C42F08052BC
:105220001A641B6C03F080530193019B174A1368A7
:1052300043F48033136000F075F80446134B5B6849
:1052400013F4803F08D100F06DF8001BB0F57A7FB1
:10525000F4D9032002B010BD0C4A136843F40033A4
:10526000136000F05FF80446084B5B6813F4003FDE
:1052700007D100F057F8001BB0F57A7FF4D903206E
:10528000E8E70020E6E700BF003802400070004079
:105290007047000010B504460E4B18784FF47A732F
:1052A000B3FBF0F30C4A1068B0FBF3F0FEF7FCF927
:1052B00068B90F2C01D901200AE0002221464FF0E5
:1052C000FF30FEF7ADF9054B1C60002000E0012027
:1052D00010BD00BFC400002064000020C8000020F2
:1052E00008B5094B1A6842F400721A601A6842F451
:1052F00080721A600320FEF781F90F20FFF7CAFFC2
:10530000FFF7C6FF002008BD003C0240034A1168B9
:10531000034B1B780B441360704700BFBC05002093
:10532000C4000020014B1868704700BFBC05002076
:1053300038B50446FFF7F6FF0546B4F1FF3F02D04B
:10534000044B1B781C44FFF7EDFF401BA042FAD32F
:1053500038BD00BFC400002003689A6912F0020F34
:1053600001D000229A6203689A6912F0010F03D1FA
:105370009A6942F001029A61704710B4019CC1F32E
:10538000090141EA02411943214321F00041026829
:105390005368640D04F4806444F07F7444F458341A
:1053A00044F47F7444F0030423EA0404214351606D
:1053B0005DF8044B70472DE9F041044603689E698F
:1053C00016F010067ED00D4690461022DA610026B7
:1053D00037462368986910F0200F32D18FBBB5F1A2
:1053E000FF3FF6D0FFF79EFFA0EB0800A84201D8D0
:1053F000002DEED121684A6802F4804294F84230D0
:10540000DBB2886910F4004F04D0203B18BF0123A1
:1054100002B973B923689B6913F0200FD9D1FFF744
:1054200081FFA0EB08001928F4D946F020060127D7
:10543000CFE74B6843F480434B60FFF773FF804630
:10544000E8E70FB92022DA6146F004060125226858
:10545000936913F4807F05D046F001064FF4807104
:10546000D161012513F4806F06D046F0080622684A
:105470004FF48061D161012513F4007F24D046F000
:10548000020623684FF40072DA6101252046FFF717
:1054900063FF2268536823F0FF7323F48B3323F4F4
:1054A000FF7323F001035360636C1E436664202383
:1054B00084F84130002384F8423084F84030284694
:1054C000BDE8F0810025C2E7002DF8D0DEE770B519
:1054D00004460D46164623689B6913F0020F1DD142
:1054E000324629462046FFF766FFC8B9B5F1FF3FAF
:1054F000F1D0FFF717FF801BA84201D8002DEAD199
:10550000636C43F020036364202384F8413000235C
:1055100084F8423084F84030012000E0002070BD63
:105520000120FCE72DE9F0410646884617461D4656
:105530003468A46938EA04030CBF4FF0010C4FF043
:10554000000CBC4518D1B5F1FF3FF1D0FFF7EAFEE2
:10555000069BC01AA84201D8002DE9D1736C43F014
:1055600020037364202386F84130002386F84230FC
:1055700086F84030012000E00020BDE8F081000006
:105580002DE9F04182B0044690461D46089E099FD1
:10559000194B00934FF08073EAB2FFF7EEFE3A46E4
:1055A00031462046FFF793FFF8B9012D0ED123684D
:1055B0005FFA88F29A6200973346002280212046E3
:1055C000FFF7B0FFA8B902B0BDE8F08123684FEA49
:1055D00018229A623A4631462046FFF778FF30B9E2
:1055E00023685FFA88F29A62E5E70120EBE7012081
:1055F000E9E70120E7E700BF002000802DE9F04146
:1056000082B0044690461D46089E099F184B0093A1
:105610000023EAB2FFF7B1FE3A4631462046FFF7D3
:1056200056FFF8B9012D0ED123685FFA88F29A620D
:1056300000973346002240212046FFF773FFA8B9A8
:1056400002B0BDE8F08123684FEA18229A623A4618
:1056500031462046FFF73BFF30B923685FFA88F2F6
:105660009A62E5E70120EBE70120E9E70120E7E79F
:105670000020008070B505460C4616462B689B69D5
:1056800013F0200F1AD1324621462846FFF793FE29
:10569000B0B9FFF747FE801BA04201D8002CEDD126
:1056A0006B6C43F020036B64202385F841300023AA
:1056B00085F8423085F84030012070BD0020FCE7BD
:1056C0000120FAE770470000002857D010B50446C3
:1056D00090F84130002B41D0242384F841302268D7
:1056E000136823F0010313606368226823F070637A
:1056F00013612268936823F400439360E368012BED
:1057000031D0A368226843F404439360E368022B1A
:105710002FD0226851681A4B0B4353602268D3681C
:1057200023F40043D360236962691343A1692268AB
:1057300043EA0123D360E369216A22680B431360C3
:105740002268136843F00103136000206064202383
:1057500084F84130206384F8420010BD80F8403066
:10576000FFF7B0FFB8E7A368226843F400439360F3
:10577000CCE723684FF400625A60CAE70120704703
:10578000008000027047A8B110B50446242380F8B9
:1057900041300268136823F001031360FFF7F2FF42
:1057A0000020606484F84100206384F8420084F89B
:1057B000400010BD012070472DE9F04F83B00D4629
:1057C000BDF834A00E9F90F84110C9B2202940F0D6
:1057D000BC800446904699460C9BBAF1000F18BF56
:1057E000002B16D090F84030012B00F0B2804FF023
:1057F000010B80F840B0FFF795FD06460090192395
:105800005A464FF400412046FFF78CFE30B101208C
:105810009CE04FF400734364012097E0212384F857
:105820004130402384F84230002363640C9A626262
:10583000A4F82AA06363019600974B464246294686
:105840002046FFF79DFE70B9638D9BB2FF2B0FD9E9
:10585000FF222285002300934FF0807329462046C3
:10586000FFF78BFD21E0002384F8403058466DE0BF
:10587000628D92B22285002300934FF00073D2B262
:1058800029462046FFF779FD0FE0628D92B222850E
:10589000002300934FF00073D2B229462046FFF751
:1058A0006CFD638D9BB2002B33D0324639462046C7
:1058B000FFF70DFE00284ED1626A236812789A62C3
:1058C000636A01336362638D9BB2013B9BB2638564
:1058D000238D013B9BB22385628D92B2002AE0D0DA
:1058E000002BDED100963B46002280212046FFF7A8
:1058F00019FE90BB638D9BB2FF2BC6D9FF22228578
:10590000002300934FF0807329462046FFF735FDB2
:10591000C7E7324639462046FFF7ACFEF8B92368A0
:105920002022DA6121684B6823F0FF7323F48B3364
:1059300023F4FF7323F001034B6084F8412000231C
:1059400084F8423084F8403000E0022003B0BDE823
:10595000F08F0220FAE70120F8E70120F6E70120A6
:10596000F4E700002DE9F04F83B00D46BDF834A0F8
:105970000E9F90F84110C9B2202940F0BD80044626
:10598000904699460C9BBAF1000F18BF002B16D019
:1059900090F84030012B00F0B3804FF0010B80F8FD
:1059A00040B0FFF7BFFC0646009019235A464FF45B
:1059B00000412046FFF7B6FD30B101209DE04FF4D5
:1059C00000734364012098E0222384F8413040238F
:1059D00084F84230002363640C9A6262A4F82AA01F
:1059E0006363019600974B46424629462046FFF7DF
:1059F00005FE70B9638D9BB2FF2B0FD9FF22228564
:105A0000434B00934FF0807329462046FFF7B5FCC7
:105A100021E0002384F8403058466EE0628D92B257
:105A200022853B4B00934FF00073D2B229462046AB
:105A3000FFF7A3FC0FE0628D92B222850023009352
:105A40004FF00073D2B229462046FFF796FC638DD3
:105A50009BB2002B34D000963B4600220421204606
:105A6000FFF760FD00284DD123685A6A636A1A70F7
:105A7000636A01336362228D013A92B22285638D9B
:105A80009BB2013B9BB26385638D9BB2002BDED042
:105A9000002ADCD100963B4680212046FFF742FDDC
:105AA00090BB638D9BB2FF2BC5D9FF2222850023BB
:105AB00000934FF0807329462046FFF75EFCC6E74F
:105AC000324639462046FFF7D5FDF8B92368202233
:105AD000DA6121684B6823F0FF7323F48B3323F4DE
