:020000040800F2
:1000000000000520D57E0308714A0008734A0008E5
:10001000754A0008774A0008794A00080000000085
:100020000000000000000000000000007B4A000803
:100030007D4A0008000000007F4A0008814A00084D
:10004000257F0308257F0308257F0308257F0308F4
:10005000257F0308257F0308894A0008257F0308B8
:10006000954A0008257F0308257F0308257F03089C
:10007000257F0308257F0308257F0308257F0308C4
:10008000257F0308257F0308257F0308257F0308B4
:10009000257F0308257F0308257F0308257F0308A4
:1000A000257F0308257F0308257F0308257F030894
:1000B000257F0308257F0308257F0308257F030884
:1000C000257F0308257F0308257F0308257F030874
:1000D000257F0308257F0308257F0308257F030864
:1000E000A14A0008257F0308257F0308257F030810
:1000F000257F0308257F0308257F0308257F030844
:10010000257F0308257F0308257F0308257F030833
:10011000257F0308257F0308257F0308257F030823
:10012000D54A0008E54A0008257F0308257F030813
:10013000ED4A0008257F0308257F0308257F030873
:10014000257F0308257F0308257F0308257F0308F3
:10015000257F0308257F0308C54A0008257F03087B
:10016000257F0308257F0308257F0308257F0308D3
:10017000257F0308257F0308FD4A000800000000D2
:10018000257F0308257F0308257F0308257F0308B3
:10019000257F0308257F0308257F0308257F0308A3
:1001A000257F0308257F0308054B0008257F0308EA
:1001B000257F0308257F0308257F0308257F030883
:0801C000257F0308257F0308D9
:1001E0000348044B834202D0034B03B118477047C6
:1001F00028070020280700200000000005480649C5
:100200000B1AD90F01EBA301491002D0034B03B124
:10021000184770472807002028070020000000002A
:1002200010B5064C237843B9FFF7DAFF044B13B13E
:100230000448AFF300800123237010BD280700207D
:10024000000000009C7F030808B5044B1BB1044963
:100250000448AFF30080BDE80840CFE7000000008D
:100260002C0700209C7F030851EC100BF8B5C1F35C
:100270000A53A3F2FF35132D10EE106A0C4630DC42
:10028000002D1EDB384F2F4101EA070303432DD019
:1002900033A3D3E9002303F0FBFC0022002304F086
:1002A0003DF948B1002C04DA4FF4801343FA05F508
:1002B0002C4424EA070400262346324643EC102B44
:1002C000F8BD27A3D3E9002303F0E2FC00220023BA
:1002D00004F024F90028EFD0002C29DB0026344656
:1002E000EAE7332D05DDB5F5806F19D041EC100B31
:1002F000F8BDA3F213434FF0FF37DF400742F5D0BC
:1003000017A3D3E9002303F0C3FC0022002304F069
:1003100005F90028D0D0002C13DB26EA0706CBE72E
:1003200010EE102A0B4603F0B3FC41EC100BF8BDA5
:1003300024F000430D4A1E43002E18BF1446002629
:10034000BAE7142D08D00123C5F1340503FA05F5E9
:10035000AE1928BFE418E0E70134DEE7AFF3008010
:100360009C7500883CE4377EFFFF0F000000F0BF63
:1003700053EC102B70B5164E23F000410025B1420E
:100380000446056021DC10EE106A0E431DD0114EAC
:100390001E40184666B91946002210EE100A0E4B90
:1003A00003F02CFE6FF035050246084621F00041AF
:1003B00020F0FF40091520F4E000A1F2FE3140F0EA
:1003C0007F53294443F40013216043EC102B70BD8C
:1003D000FFFFEF7F0000F07F0000504353EC102B35
:1003E000C3F30A5CACF2FF31132910B510EE100A0A
:1003F0009E4622DC002909DB1F4C44FA01FC03EA7B
:100400000C04204310D143EC102B10BD03F0004E20
:10041000013104BF4EF07F5E4EF4401E0020734653
:10042000024643EC102B10BD4FF4002343FA01F1B8
:100430008E442EEA0C0E0020F1E7332908DDB1F5D9
:10044000806FE0D1194603F023FC41EC100B10BD86
:10045000ACF2134C4FF0FF3424FA0CFC12EA0C0FF0
:10046000D1D00123C1F1330103FA01F1401828BFB3
:100470009E4420EA0C00D2E7FFFF0F0010EE102A86
:10048000C2F3C7537F3B162B22F000412FDC002B19
:1004900018DB1A4919410A4228D0DFED197A70EEAB
:1004A000277AF5EEC07AF1EE10FA1FDD002A04DD9E
:1004B0004FF4000040FA03F31A4422EA010300EE6D
:1004C000103A7047DFED0E7A70EE277AF5EEC07ABB
:1004D000F1EE10FA0ADD002A06DBF7EE007A0029B9
:1004E00018BFB0EE670A70479FED060A7047B1F17A
:1004F000FF4FFBD330EE000A704700BFFFFF7F00C5
:10050000CAF249710000008010EE103A184A23F038
:10051000004393421BDDB3F1FF4F02DB30EE400A94
:10052000704700B583B0684600F0B2FB00F00300EE
:100530000128DDED010A9DED000A0CD0022812D041
:1005400070B1012001F096F803B05DF804FBDFED17
:10055000090A00F0D3BC01F08DF8B1EE400AF3E7D0
:1005600000F0CCFCF0E700F0C9FCB1EE400AEBE78C
:10057000D80F493F0000000010EE102AC2F3C75305
:100580007F3B162B22F0004128DC002B18DB1A4998
:1005900019410A4221D0DFED197A70EE277AF5EE83
:1005A000C07AF1EE10FA18DD002A04DA4FF40000E8
:1005B00040FA03F31A4422EA010300EE103A7047AE
:1005C000DFED0E7A70EE277AF5EEC07AF1EE10FAD2
:1005D00003DD002A08DB9FED0A0A7047B1F1FF4FE7
:1005E000FBD330EE000A7047FFEE007A002918BFF7
:1005F000B0EE670A704700BFFFFF7F00CAF2497183
:100600000000000010EE103AC3F3C7527F3A162ADA
:1006100010EE101A15DC002A0CDB0C4810410342C6
:1006200005D04FF4800313410B4423EA000300EE8E
:10063000103A7047013203F00043F8D143F07E5383
:10064000F5E7802AF3D130EE000A7047FFFF7F0004
:1006500010EE103A194A23F0004393421CDDB3F127
:10066000FF4F02DB30EE400A704700B583B06846AA
:1006700000F00EFB00F003000128DDED010A9DED06
:10068000000A0ED0022813D070B100F037FCB1EE92
:10069000400A03B05DF804FBDFED090A002000F01A
:1006A000E9BF00F02BFCF4E7012000F0E3FFF0E7E6
:1006B000012000F0DFFFB1EE400AEAE7D80F493F22
:1006C0000000000010B582B08DED010A019C24F0FD
:1006D0000043B3F1FF4F0BDB002CF7EE007A29DB70
:1006E000B0EE407A87EE870A30EE270A02B010BDDE
:1006F000214A934207DDB7EE000A002CB8BFB1EEE5
:10070000400A02B010BDB3F1105F1BDBB3F17E5F96
:1007100021DB01F031F930EE000A00F0F3FFB0EE1A
:10072000007A30EE070AF7EE007AC7EE006A37EE7D
:10073000E60AE2E79DED017A87EE870A30EE670A66
:1007400002B010BDDDED017AB7EE000A37EE800A87
:1007500020EE270ACAE701F00FF9F8EE007A20EE42
:10076000270A00F0CFFFB0EE007A30EE077AF1EE04
:10077000407A87EE870AC0E7FFFFAF4108B52DED4D
:10078000028BB0EE408A00F095F8164B93F90030DA
:100790000133F0EE408A12D0B0EE480A01F0F4F8CE
:1007A00068B1DFED117AB4EEE78AF1EE10FA12DCEF
:1007B000DFED0E7AB4EEE78AF1EE10FA04D4B0EE73
:1007C000680ABDEC028B08BD01F0DCF92223DFEDE5
:1007D000088A0360F3E701F0D5F92223DFED058AEB
:1007E0000360ECE7040000208071B142B5F1CFC294
:1007F000000000000000807F08B52DED028BB0EEF8
:10080000408A00F045F9144B93F90030013314D0BD
:10081000B4EE488AF1EE10FA0FD6B5EEC08AF1EECA
:1008200010FA0ADCB5EE408AF1EE10FA08D101F0B8
:10083000A9F922239FED090A0360BDEC028B08BDD4
:1008400001F0A0F9BDEC028B034621221A60044896
:10085000BDE8084001F0A6B804000020000080FFB9
:10086000A8B3030808B52DED028BB0EE408A00F066
:1008700041FB0E4B93F9003001330BD0B4EE488AA4
:10088000F1EE10FA06D6DFED0A8AB4EEE88AF1EE50
:1008900010FA02D4BDEC028B08BD01F073F988EEAA
:1008A000A80ABDEC028B2123036008BD04000020D0
:1008B0000000000010EE103A23F00042B2F1FF4FAA
:1008C00052D84FEAD37100F09380614883424EDCE6
:1008D000002BC0F286805F4B9A424DD95E4B9A4204
:1008E00000F299805D4A02EB810292ED004A92ED9E
:1008F000027AC1F1010330EE444A5B1A34EE470A32
:10090000DFED577ADFED574A9FED575A9FED576A53
:10091000DFED575A60EE006AE6EEA74AA4EEA65A4B
:10092000A5EE266AE6EE265AB0EE406AA5EEE66A25
:10093000002B47D0F0EE006A60EE065A36EEC66A2B
:10094000F7EE007A85EE860A13F17D0F37EE400A46
:1009500030EE440A37EEC00A51DB10EE102A02EBEB
:10096000C35300EE103A704730EE000A70479FED17
:10097000410A20EE000A7047B2F1465F0AD2DFED6D
:100980003D7A70EE277AB7EE007AF4EEC77AF1EE90
:1009900010FA5ADC60EE007A9FED317ADFED315AC1
:1009A0009FED316ADFED316AE7EE875A9FED307ACD
:1009B000A7EEA56AE7EE866AB0EE406AA7EEA67AD1
:1009C000A7EEC76AF0EE007A60EE066A36EE676A56
:1009D000B7EE007AC6EE867A37EEC00A37EE400AE6
:1009E0007047254B9A427FF676AF9FED240A7047F9
:1009F000DFED227A002918BFB0EE670A704710EECB
:100A0000102A643302EBC353DFED1D7A00EE103A77
:100A100020EE270A7047114B9FED1A7A9FED1A6A54
:100A2000DFED1A6A03EB8103D3ED047AE0EE077A77
:100A3000B0EE404AFDEEE77AB8EEE77A17EE903A6C
:100A4000A7EE464A27EE267A58E730EE070A7047A7
:100A50001772B1421872B13E9115853FB47F0308F9
:100A60004CBB31330EEADDB555B38A38610B36BB6A
:100A7000ABAA2A3ECAF24971B5F1CF42000000008C
:100A80000000800D3BAAB83F8071313FD1F7173786
:100A900010EE103A33F000422ED0002B33DBB3F1CE
:100AA000FF4F40DAB3F5000F34DB4FF0000C68481D
:100AB000C3F31601084400F4000282F07E520A4398
:100AC000DB1500EE102A7F3B624A634401F10F0CF4
:100AD000F7EE007A0CEA020230EE670A03EBD0531D
:100AE00022BBB5EE400AF1EE10FA60D1002B40F0C7
:100AF00092809FED590A70479FED587ADFED567A44
:100B000087EE270A704770EE407A9FED537A87EEA2
:100B1000870A7047DFED527A60EE277A6FF0180C83
:100B200017EE903AC3E730EE000A7047F0EE007A15
:100B300070EE277A07EE103A80EE274A4948C1F551
:100B40005712084402F522720243002A9FED463AEA
:100B5000DFED464ADFED465ADFED463A9FED465A55
:100B6000DFED467ADFED466A24EE046AF8EEC72A26
:100B700026EE067AE7EE034AA7EE235AE4EE875AFA
:100B8000E5EE076AE5EE877A67EE867AE6EE877A23
:100B90002ADDB6EE007A20EE077A27EE007A4BBB0C
:100BA00077EE877AA7EEC47A30EE470A7047B6EE42
:100BB000007ADFED346AF0EE477AE0EE667A20EEF6
:100BC000007A27EE277A002BEED007EE903A9FEDC1
:100BD0002E6ADFED2E6AF8EEE77AA7EEC67A37EED8
:100BE000400A97EEA60A704713BB70EE677AA7EE2D
:100BF000C40A7047DFED246A9FED246A77EE877A96
:100C000062EEA66AE7EE846A37EE667A37EE400A4D
:100C100092EE860A704707EE903A9FED1B0A9FED11
:100C20001B7AF8EEE77A27EE800AA7EE870A70476C
:100C30009FED157ADFED156A70EE677A27EE627A1E
:100C4000A7EE847A37EE400A92EEA60A704700BFFC
:100C500020FB4A00F0FF7F0000000000000000CCF5
:100C60000000004C305CCFFF9788173E25333A3E9A
:100C70002549923E4FD01C3E298E633EABAA2A3FA7
:100C8000CDCCCC3EABAAAA3ED1F717378071313F0D
:100C900070B510EE103A894A23F00044944286B0B1
:100CA000054670DD864A944210EE106A22DC002B65
:100CB000DFED847A844A24F00F04B0EE407A40F3EA
:100CC000E480944270EE677A09BFDFED806A9FEDA1
:100CD000807A9FED807A77EEE67A012077EEC76A18
:100CE00077EEE67AC5ED006A77EEC77AC5ED017A50
:100CF00006B070BD784A944254DDB4F1FF4F49DA32
:100D0000E215863AA4EBC25307EE903ABDEEE77ABD
:100D1000DFED726AB8EEC77A77EEC77A8DED037AA7
:100D200067EEA67ABDEEE77AB8EEC77A77EEC77AB5
:100D30008DED047A67EEA67AF5EE407AF1EE10FAC0
:100D4000CDED057A40F09080B5EE407AF1EE10FAE4
:100D500014BF02230123624901910221009103A8DB
:100D6000294600F04DF9002EC2DA95ED007AD5ED56
:100D7000017AB1EE477AF1EE677A85ED007AC5ED3A
:100D8000017A4042B4E7002285ED000A426000206B
:100D900006B070BD70EE407A0020C5ED017AC5ED59
:100DA000007AA5E700F0E8FD9FED4E7A9FED456AD9
:100DB000F6EE007AE0EE077A9FED457AFDEEE77AEF
:100DC00017EE900AF8EEE76A1F28A6EEC60A66EE4E
:100DD000877AB1EE666A1EDC434A411E24F0FF03A7
:100DE00052F82120934216D030EE677A85ED007AD2
:100DF00030EE470A002E30EE670A85ED010ABFF695
:100E000077AFB1EE477AB1EE400A85ED007A85ED15
:100E1000010A40426CE730EE677AE21517EE103AAD
:100E2000C3F3C753C3EBD454082CDFDDDFED277ABF
:100E30009FED287AF0EE405AE6EE275A30EE650A2A
:100E4000A6EE270AF0EE407AD6EE877A35EEE77AFC
:100E500017EE103AC3F3C753D21A192A06DCB0EEC4
:100E6000650A85ED007AC3E7032374E79FED1F7AD7
:100E70009FED1F5AB0EE650AA6EE070A75EEC07A1E
:100E8000E6EE077AD6EE857AAEE7944270EE277AE0
:100E900009BFDFED0E6A9FED0E7A9FED0E7A77EEB9
:100EA000A67A4FF0FF3077EE876A77EEE67AC5EDE7
:100EB000006A77EE877AC5ED017A19E7D80F493FC6
:100EC000E3CB1640800FC93FD00FC93F00443537F0
:100ED0004344353708A3852E800F494300008043E3
:100EE0004C80030884F9223FCC7F030800A3852EA1
:100EF00032318D24B1EEC00A704700BF10EE103AB7
:100F000023F00043B3F1485F2CDAFDEEC07A17EE10
:100F1000903A002B60D020EE007ADFED317A9FED21
:100F2000315ADFED315A9FED316ADFED316AA7EEBC
:100F3000275ADFED307AE7EE055AA7EE256AE7EE8D
:100F4000067AE7EE276A67EE266A60EEC00AF6EEDA
:100F5000007AE7EE260AB7EE000AD7EE270A30EE4F
:100F6000600A704720EE007ADFED1D7A9FED1D5A72
:100F7000DFED1D5A9FED1D6ADFED1D6A1E4AA7EECB
:100F8000275A9342DFED1B7AE5EE075AA5EE876AF2
:100F9000E6EE077AE7EE876A66EE876AD5DD174ADE
:100FA000934214DC03F17F4307EE903AB7EE006AF8
:100FB00036EE676A60EEC00AF6EE005AD7EE257A82
:100FC000E7EE260A77EEE00A36EE600A7047B6EEE4
:100FD000076AF5EE027AEDE7B7EE000A704700BF48
:100FE0004ED747ADF6740F317CF293B4010DD03774
:100FF000ABAA2A3D610BB6BA9999993E0000483FC9
:101000002DE9F04F2DED048BDBB01C4603930691C8
:10101000A24B6899089253F82150111D824604F1A1
:10102000FF38C0F2A382D31E48BF131DDB1002930A
:101030000133DB000793DDE907239B1A0593029B2D
:1010400015EB0801A3EB080316D401319FED947A48
:10105000699819441EAA002BA4BF50F8234007EE3C
:10106000904A03F10103ACBFF8EEE77AF0EE477A5D
:101070008B42E2EC017AEED1002DC0F2E782039BB5
:101080001EAA02EB830446AE4FEA830C4046EF18DB
:101090000AEB8301B8F1000FDFED817A09DB22460C
:1010A0005346F3EC016A32ED017A8B42E6EE877A21
:1010B000F7D10130B842E6EC017A04F10404E9D139
:1010C00009AB0AAF03EB850907EB8503083B9FEDEE
:1010D000769ADFED748A059804930AEB0C0446AE09
:1010E00000955AAB03EB8503002D13ED140A4FEA6C
:1010F000850B16DD06EB85033A4660EE097AB0EE05
:10110000407AFDEEE77A73ED016AF8EEE77AB342D2
:10111000A7EEE87A37EEA60ABDEEC77AA2EC017A0E
:10112000EBD1019000F044FCB0EE408AB4EE000A2E
:1011300028EE000AFFF720FAF2EE007AA0EE678AA6
:1011400001980028FDEEC89AF8EEE97A38EE678A31
:1011500079DD05F1FF3EC0F1080357F82E1041FA82
:1011600003FC0CFA03F3CB1AC0F1070219EE901A34
:1011700043FA02F26144002A47F82E3009EE901A31
:1011800069DCB5EE408AF1EE10FA40F0C080009BB9
:1011900005F1FF3B5B4510DC05F18043013B07EBAC
:1011A00083030021944653F804294B4541EA020188
:1011B000F9D16246002940F0F280009B013B57F8CC
:1011C0002330002B40F0E780049B4FF0010C53F8D4
:1011D00004290CF1010C002AF9D06B1CAC449E468A
:1011E000039A5119029A02EB030B0BF1804B699A97
:1011F0000BF1FF3B06EB83051EAB02EB8B0B03EB06
:101200008101DBED017A9FED267AF8EEE77AB8F1FD
:10121000000F0BF1040BC1ED007A0A4601F1040145
:1012200009DB534601E072ED017AF3EC016AA34257
:10123000A6EEA77AF7D10EF1010EE645A5EC017AEC
:10124000DFDD65464DE740F09C806B1E57F823209C
:101250001212002A95DD19EE903A002D03F10103D8
:1012600009EE903A40F39881396800297FD1012D29
:1012700026D03B464FF0010C53F8041F00297AD0CA
:101280000CF10103C1F580719D4247F82C1016DD69
:1012900057F82310BB4407EB83030AE06483030879
:1012A00000000000000080430000803B0000C93FB8
:1012B0001968C1F1FF0143F8041B5B45F8D1012116
:1012C00000280CDD012800F04881022807D105F133
:1012D000FF3C57F82C3003F03F0347F82C30022A2C
:1012E0007FF44FAFB7EE000A30EE488A00293FF492
:1012F00048AF0992019000F05BFB38EE408A099AF2
:101300000198B5EE408AF1EE10FA3FF440AF029238
:10131000DDE90732B0EE480A981A0195009D00F009
:1013200047FB1FED207AB4EEC70AF1EE10FADDE9B3
:101330000132C0F259815FED247A059960EE277A77
:101340000831FDEEE77A0591F8EEE77A03F1010B3B
:10135000A7EEC70AFDEEE77ABDEEC00A10EE101A3E
:1013600047F8231017EE903A47F82B302EE0012370
:101370004FF0000C86E70CF1010CAC457FF47CAF1C
:101380009EE7F6EE007AB4EEE78AF1EE10FA80F20C
:10139000F2800022F5E66B1C9E469C4620E70599EC
:1013A000A1F1080057F82B1005902B46009D69B954
:1013B00003F18043023B07EB8303014653F8040922
:1013C0000BF1FF3B08390028F8D0059105980092F1
:1013D000B7EE000A00F0ECFABBF1000F009AC0F281
:1013E00028814FEA8B0E46AB03EB0E060EF1040C80
:1013F0001FED537A07EB0C03311D73ED017AF8EE04
:10140000E77ABB4267EE807A20EE070A61ED017A47
:10141000F3D1002D1FED5B6A4FF0000420DB9348F1
:10142000DFED937AB0EE467A3146002303E09C422A
:1014300008DBB0EC017AF1EC016A01339D42E6EE83
:10144000877AF4DA5AAB03EB8403A34543ED287A99
:10145000A6F1040604F1010305D0002D1C46DEDAD6
:10146000DFED837AEEE7689902291CDC002900F39E
:1014700095800FD132ABDFED7E7A9C443CED017A52
:10148000634577EE877AF9D10AB1F1EE677A069B68
:10149000C3ED007A19EE903A03F007005BB0BDECA3
:1014A000048BBDE8F08F689B032BF3D1BBF1000FD9
:1014B00000F0D4800EF5B4736B4432A913ED287A92
:1014C00001EB8B0373ED017AF0EE476A37EE277A72
:1014D000994277EEC77A83ED007A77EEA67AC3ED6C
:1014E000017AEFD1BBF1010F40F3B8800BF1804BD3
:1014F0000EF5B4730BF1FF3B0DEB030E4FEA8B0BB4
:101500000BF104031EED287A0B4433A873ED017A26
:10151000F0EE476A37EE277A984277EEC77A83ED86
:10152000007A77EEA67AC3ED017AEFD10BF1080BC2
:10153000DFED4F7A01EB0B03083133ED017A99426D
:1015400077EE877AF9D1002A56D10699329A339BE1
:101550000A604B60C1ED027A9CE705F1FF3C57F849
:101560002C3003F07F0347F82C30B8E608230793AC
:10157000002302935FE519EE903A002D03F1010379
:1015800009EE903AC8BF02223FF76EAEF7EE007A3E
:1015900037EEC88A0222F4E5002191E632A9DFED98
:1015A000347A01EB830333ED017A994277EE877A3F
:1015B000F9D19DED327A8ABB069BBBF1000FC3EDDA
:1015C000007A77EE677A0BDD33A90123B1EC017A5B
:1015D00001339B4577EE877AF8DA0AB1F1EE677A44
:1015E000069BC3ED017A55E7BDEEC00A9B4610EE9F
:1015F000101A47F82310E9E6DDED326A9DED337AE3
:10160000069BF1EE666AB1EE477AF1EE677AC3EDBA
:10161000006A83ED017AC3ED027A3BE7069BF1EEA7
:10162000676ABBF1000F77EE677AC3ED006ACBDC27
:10163000D4E7689B022B0DDC002B14DC7FF42AAF6F
:10164000DFED0B7A002A3FF422AF1EE7039B4FEA3F
:10165000830C35E5689B032B7FF41CAFDFED047A28
:10166000002AC9D171E7DFED027AA2E7748303088B
:101670000000000010EE103A23F00043B3F1485F81
:1016800004DAFDEEC07A17EE903A5BB360EE007AB2
:101690009FED157ADFED155A9FED156ADFED156A9E
:1016A000E7EE875A9FED147AA5EEA76A20EE275A37
:1016B000E6EE276AA6EEA77A30B9DFED106AE7EE0C
:1016C000876AA6EE850A704727EE457AF6EE006A2D
:1016D000A0EEA67ADFED0A6AD7EE270AE5EE260A23
:1016E00030EE600A704700BFD3C92E2F342FD7B217
:1016F0001BEF3836010D50B98988083CABAA2ABEC9
:10170000ABAA2A3E10EE102A8C4922F000438B42ED
:101710002AD9B3F1FF4F7ED800F0D880002AC0F25A
:101720008A80874A934200F2F380DFED866A60EE9A
:10173000266AF6EE007A77EEA67A9FED836ADFEDF1
:10174000836AFDEEE77AB0EE407A17EE903AF8EE53
:10175000E77AA7EEC67A67EEA66A37EE660A77EEF4
:10176000407A77EEE67A07E079498B4256D8B3F1B2
:101770004C5FC0F084800023B6EE003A20EE034AAE
:10178000DFED746A9FED746ADFED744A9FED745A61
:1017900020EE047AF7EE003AA7EE266ADFED716AD2
:1017A000E6EE074AB0EE086AE4EE876AF1EE085A00
:1017B000A6EE875AF0EE636AE5EE076AA4EE666A63
:1017C000E0EE465A36EEC66AC6EE256A66EE876ACF
:1017D000002B4DD076EEE76A5A1CD6EE807A77EE73
:1017E000C77A65D0012B53D05A1C392A33D8162B0F
:1017F00073DC4FF080721A41C2F17E5277EEC07AEC
:1018000000EE102A30EE670A10EE102A02EBC353E6
:1018100000EE103A704730EE000A704752498B4292
:101820007CD8002A9FED487A49DBDFED486A30EE2C
:10183000477A012391E7DFED4D7A70EE277AF5EED6
:10184000C07AF1EE10FA66D4DFED3E6AFEEE007A61
:1018500060EE266A6FE777EEC07A33EEE70A10EEA5
:10186000102A02EBC35300EE103A30EE630A7047C1
:10187000F0EE477AD0EE267A30EE670A7047DFED59
:101880003C7A70EE277A77EEE77A30EE670A704797
:10189000BDEE007AB4EEC70AF1EE10FA2FD530EEA5
:1018A000033AB8EE000A77EEC37A27EE800A704753
:1018B00070EE677ABEEE000AA7EE830A7047DFED8E
:1018C0002D6A30EE077A4FF0FF3346E7FFEE007ADD
:1018D000002AB8BFB0EE670A7047C3F17F02D20595
:1018E00007EE102A77EE877A70EE677A37EEA30A52
:1018F00010EE102A02EBC35300EE103A704770EE60
:10190000677AB0EE007AE7EE873AB0EE630A704786
:10191000002000F0DBB8BFEE000A7047DFED097A67
:10192000B6EE007ABEEE006A002A60EE276AB4BF07
:10193000F0EE467AF0EE477AFDE600BF43B89541F7
:101940001772B1423BAAB83F8071313FD1F71737C8
:101950001872B13EBBED57B4547E8636CD70A6B832
:10196000898808BD010DD03A9115853F6042A20DCE
:10197000CAF24971D1F717B710EE103A23F00043BD
:1019800000EE103A704700BF82B08DED010A019859
:1019900020F00040B0F1FF4FACBF0020012002B0AA
:1019A000704700BF9FED010A704700BF0000C07F75
:1019B00082B08DED010A019B33F000422AD0B2F1D2
:1019C000FF4F23D213F0FF4F28D19DED017ADFEDB9
:1019D0002A7A2A4B67EE277A9842CDED017A37DBD7
:1019E000019BC3F3C752193A0244FE2A1ADD9FED48
:1019F000240A9FED247A019B002BF0EE407AB8BFB9
:101A0000B0EE470A20EE270A02B0704730EE000A17
:101A100002B070479DED010A02B07047D20D02443A
:101A2000FE2AE4DC002A0BDC12F1160F17DA4CF266
:101A300050339842DBDC9FED140A9FED147ADAE70D
:101A400023F0FF4343EAC25300EE103A02B070475E
:101A50009FED0D0ADDED017A27EE800AD8E71932F5
:101A600023F0FF4343EAC253DFED097A07EE103A51
:101A700027EE270ACCE700BF0000004CB03CFFFF78
:101A8000CAF24971CAF249F16042A20D6042A28DC8
:101A90000000003310B582B08DED010A044600F05D
:101AA00071F89DED010A046002B010BD9FED050ABA
:101AB000DFED057A002808BFF0EE407A27EE800AB5
:101AC0002220E7E700000070000000F0EEE700BF12
:101AD00000289FED060AFFEE007AB7EE007A08BFF5
:101AE000F0EE477A87EE800A2220D3E7000000005C
:101AF00070EE407AB4EE400A87EEA77AF1EE10FA63
:101B0000B0EE470A01D62120C4E7704708B5062089
:101B100000F0A2FF012002F0A9FF00BF00B50B4CAE
:101B200025681446EE681A4685B003460D464CB14A
:101B300007490095CDE901143046064900F036F812
:101B4000FFF7E4FF04490C46F3E700BF080000205C
:101B50002CCC04083CCC0408A8B3030808B51346F1
:101B60000022FFF7DBFF00BF10B5054C34B1134670
:101B70000A460146022001F087FA10BD204610BD3A
:101B800089300008014B1868704700BF080000202A
:101B90000CB400B583B004AB53F8042B019300F0F0
:101BA00047FB03B05DF804EB02B070470EB410B50C
:101BB00083B005AB064C53F8042B01930146206813
:101BC00000F036FB03B0BDE8104003B0704700BF23
:101BD000080000202DE9F0410E461446804608B169
:101BE000836973B3224B9C4230D0224B9C4239D044
:101BF000214B9C4208BFD8F80C40A3891B072AD56B
:101C0000236943B335783DB92FE023685A1C22601D
:101C10001D7016F8015F45B3A368013B002BA3605C
:101C2000F3DAA769BB4229462246404601DB0A2D6A
:101C3000EBD101F043F90130EBD14FF0FF30BDE8BB
:101C4000F08101F067FC0A4B9C42CED1D8F80440E9
:101C5000A3891B07D4D42146404601F093F90028FC
:101C6000D0D0EAE7D8F80840C7E70020BDE8F08107
:101C7000E4830308C4830308A483030810B4044C5A
:101C800003460A4620685DF8044B1946FFF7A2BFD9
:101C90000800002070B50D4E0D4D761BB61006D015
:101CA000002455F8043B01349847A642F9D1094E67
:101CB000094D761B36F072F9B61006D0002455F89F
:101CC000043B01349847A642F9D170BDB0CC04085A
:101CD000B0CC0408B4CC0408B0CC0408024B0146D4
:101CE000186800F007BA00BF08000020024B014648
:101CF000186800F09DB900BF08000020032A70B5E5
:101D000015D940EA010C1CF0030F04460B4621D103
:101D1000194620460E680568B54204F1040403F133
:101D2000040317D1043A032A20461946F0D8541E5A
:101D3000A2B100F1FF3C013901E0C3180CD01CF83E
:101D400001EF11F8012F9645A4EB0C03F5D0AEEB93
:101D5000020070BD541EECE7184670BD104670BD01
:101D6000844641EA000313F003036DD1403A41D3A6
:101D700051F8043B40F8043B51F8043B40F8043B65
:101D800051F8043B40F8043B51F8043B40F8043B55
:101D900051F8043B40F8043B51F8043B40F8043B45
:101DA00051F8043B40F8043B51F8043B40F8043B35
:101DB00051F8043B40F8043B51F8043B40F8043B25
:101DC00051F8043B40F8043B51F8043B40F8043B15
:101DD00051F8043B40F8043B51F8043B40F8043B05
:101DE00051F8043B40F8043B51F8043B40F8043BF5
:101DF000403ABDD2303211D351F8043B40F8043B95
:101E000051F8043B40F8043B51F8043B40F8043BD4
:101E100051F8043B40F8043B103AEDD20C3205D3A4
:101E200051F8043B40F8043B043AF9D2043208D09C
:101E3000D2071CBF11F8013B00F8013B01D30B880E
:101E400003806046704700BF082A13D38B078DD0EC
:101E500010F003038AD0C3F10403D21ADB071CBFBE
:101E600011F8013B00F8013B80D331F8023B20F828
:101E7000023B7BE7043AD9D3013A11F8013B00F861
:101E8000013BF9D20B7803704B7843708B788370E9
:101E90006046704788420DD98B1883420AD900EBFF
:101EA000020CBAB1624613F801CD02F801CD994295
:101EB000F9D170470F2A0ED8034602F1FF3C4AB110
:101EC0000CF1010C013B8C4411F8012B03F8012F9C
:101ED0006145F9D1704740EA01039B0750D1A2F157
:101EE000100370B501F1200C23F00F0501F1100E65
:101EF00000F11004AC441B095EF8105C44F8105C5F
:101F00005EF80C5C44F80C5C5EF8085C44F8085C15
:101F10005EF8045C44F8045C0EF1100EE64504F132
:101F20001004E9D1013312F00C0F01EB031102F0A0
:101F30000F0400EB031327D0043C24F003064FEA00
:101F4000940C1E441C1F8E465EF8045B44F8045F2C
:101F5000B442F9D10CF1010402F0030203EB840353
:101F600001EB840102F1FF3C4AB10CF1010C013B91
:101F70008C4411F8012B03F8012F6145F9D170BD94
:101F800002F1FF3C03469BE72246EBE7830730B5AF
:101F900048D0541E002A3FD0CAB2034601E0013C9B
:101FA0003AD303F8012B9D07F9D1032C2DD9CDB2DB
:101FB00045EA05250F2C45EA054536D9A4F110025E
:101FC00022F00F0C03F1200EE6444FEA121C03F13D
:101FD000100242E9045542E9025510327245F8D127
:101FE0000CF1010214F00C0F03EB021204F00F0CC1
:101FF00013D0ACF1040323F003030433134442F879
:10200000045B9342FBD10CF003042CB1CAB21C4414
:1020100003F8012B9C42FBD130BD64461346002CD3
:10202000F4D1F9E703461446BFE71A46A446E0E7B1
:10203000002958D030B551F8043C83B0002BA1F1F1
:102040000404B8BFE418019001F022FD284A019869
:10205000136833B1A3420DD9216804EB010C634529
:102060002FD06360146003B0BDE8304001F012BDB2
:10207000A34210D81A465B68002BF9D1116802EB15
:10208000010C644519D02FD36360546003B0BDE8E0
:10209000304001F0FFBC116802EB010CA44516D0E2
:1020A00022D8216804EB010C6345EDD11D685B6803
:1020B0002944C4E900135460D5E72368194411602A
:1020C000D1E71D685B682944C4E90013CAE72468A6
:1020D00021445418A3421160C5D1D3E900432144DF
:1020E000C2E90013BFE770470C230360BBE700BFE2
:1020F00044070020F8B5CD1C25F0030508350C2D4C
:1021000038BF0C25002D064623DBA94221D8254FD8
:1021100001F0BEFC3A6822B3144603E0636822462D
:10212000FBB11C4623685B1BF8D40B2B15D86368E6
:1021300094420CBF3B605360304601F0ABFC04F1AD
:102140000B00231D20F00700C21A01D01B1AA35058
:10215000F8BD0C2333600020F8BD23601C442560CB
:10216000EAE77968C9B12946304600F0CFFB431C45
:102170000CD0C41C24F00304A04205D0211A304620
:1021800000F0C4FB013001D02560D5E70C233046B8
:10219000336001F07FFC0020F8BD304600F0B6FB54
:1021A0007860E0E7440700209368013B002B9360D0
:1021B00011DA10B49469A34209DB0A2907D0136825
:1021C000581C1060197008465DF8044B70475DF8A4
:1021D000044B00F073BE1368581C10601970084659
:1021E000704700BF9BB1F8B5134406460F46541E16
:1021F0005D1E01E0AC4208D014F8011F3A4630469B
:10220000FFF7D2FF431CF5D1F8BD0020F8BD002038
:10221000704700BF936810B5144613B95360184651
:1022200010BD01F097F90023C4E9013310BD00BFD0
:102230002DE9F04F88469FB015461C46814618B1DF
:102240008369002B00F0A280924B984500F0A48097
:10225000914B984500F0B180904B984508BFD9F854
:102260000C80B8F80C30180740F19D80D8F8103079
:10227000002B00F0988000230B932978884E05945A
:1022800020238DF8313030238DF83230012700299A
:1022900074D02C460B4604E014F8013F002B00F0EC
:1022A0008F80252BF8D1B4EB050B40F08C80237880
:1022B000002B63D000234FF0FF32CDE907230693B4
:1022C00009938DF85B301C93013404E0069A07FAF9
:1022D00003F3134306932546052214F8011B3046E9
:1022E00001F086FB831B0028F0D1069BD90644BF72
:1022F00020228DF85B2029781A0744BF2B228DF805
:102300005B202A2970D1059A1168043200290592B0
:10231000C0F29B800991697801352E2976D0614CF5
:102320000322204601F064FB38B1069B001B4024C9
:1023300004FA00F003430693013515F8011B5A48CF
:102340008DF83010062201F053FB002800F0838046
:10235000564B002B6DD005AA0092554B424606A95C
:102360004846AFF300800390039B013306D00B9BDC
:10237000039A297813440B9300298AD1B8F80C30BA
:102380005B0617D40B981FB0BDE8F08F01F0C2F8C0
:10239000404B98457FF45CAFD9F80480B8F80C3016
:1023A00018073FF563AF4146484600F0EBFD0028B3
:1023B0003FF461AF4FF0FF30E5E7D9F8088050E710
:1023C000B4EB050BDAD0AA46C5F1010503E093454D
:1023D00036D91AF8011F42464846FFF7E5FE01309C
:1023E00005EB0A02F3D1C9E7A1F13002092A94D81A
:1023F000099B15F8011F03EB830302EB4303A1F1D3
:102400003002092AF5D92E29099388D169782A2919
:102410002BD1059BA9781A6807920433002A05F18D
:1024200002000593B8BF4FF0FF330546B8BF0793CE
:1024300075E7059B073323F007030833059396E7F9
:102440000B9A23785A440B9232E7494243F0020335
:10245000099106935FE705AA0092154B424606A92B
:10246000484600F0CBF803907EE7A1F1300200234C
:10247000092A079305F101053FF651AF15F8011F31
:1024800003EB830302EB4303A1F13002092AF5D9E0
:10249000079344E7E4830308C4830308A483030881
:1024A0006CCC040874CC040878CC0408000000004C
:1024B000E521000810B4054C8446134620685DF8F9
:1024C000044B0A466146FFF7B3BE00BF0800002078
:1024D0002DE9F84F92461F460A698B68DDF828906F
:1024E0009A42B8BF1A46CAF8002091F843300C4609
:1024F000064613B10132CAF80020226891065DD564
:10250000DAF800300233CAF80030226812F0060F01
:1025100011461ED1E168CB1A002BD8BF114618DD39
:1025200004F1190B4FF0000805E0E568DAF8003017
:10253000ED1A45450CDD01235A4639463046C84759
:10254000013008F10108F0D14FF0FF30BDE8F88FFD
:10255000216894F84330003B18BF01238A060AD54E
:10256000E1185A1C302081F84300224494F84510A9
:1025700082F84310023304F1430239463046C8471B
:102580000130E1D0236803F00603042B1DD0A368BB
:102590002269934225DD4FF000089B1A98441A34B3
:1025A000002501E045451CDA012322463946304624
:1025B000C847013005F10105F4D1C5E712F0060F57
:1025C00012D0003B18BF0123D5E7DAF80030E168EC
:1025D0002269C91AA368934221EAE178DDDC002967
:1025E000DDDC0020BDE8F88FE168DAF80030CB1AB6
:1025F000002BD8BF114693DCABE700BF2DE9F047B5
:102600000C4684B09046227E0C990746994604F108
:102610004300002A33D0A2F15803DDB2202D67D841
:10262000202B65D8DFE813F0DE006400640064004E
:102630006400640064006400640064006400A3003B
:102640006E0064006400640064006E006400640056
:102650006400640021007F00C00064006400AE00DC
:1026600064007F0064006400E50023681A0640F1FE
:1026700004810B6862691D1D0D601B681A600023D0
:1026800082462361CDF80090434603AA214638468E
:10269000FFF71EFF013020D02369524641463846DD
:1026A000C847013019D02368E068039E9B0719D5FD
:1026B000831B002B16DD04F1190A002504E0E068F5
:1026C000039E831BAB420DDD012352464146384633
:1026D000C847013005F10105F1D14FF0FF3004B0DA
:1026E000BDE8F087B042B8BF304604B0BDE8F0871F
:1026F000012384F84220236104F1420A002384F874
:102700004330BFE723681A0602D45E0600F1C18099
:102710000D682A6804350D601546002A6BDBDFF86A
:1027200084C10A2610E023681D0640F19C800B68D6
:102730001D1D0D601D68DFF86CC16F2A0CBF0826D7
:102740000A26002384F843306268A260002A7FDBF7
:10275000236823F004032360002D5BD1002A79D184
:102760008246082E65D0A0EB0A0020618AE70B683C
:102770000122186804330B6004F1420A84F8420015
:102780002261BBE70B686268181D0860D3F800A0DF
:102790000021504601F02CF9002800F08180A0EBC8
:1027A0000A0060602061A9E7236843F020032360EA
:1027B0007822DFF8F4C084F845200A68151D0D6002
:1027C0001D0643D4590641D51588DE0744BF43F0A2
:1027D00020032360002D44D1236823F020032360CD
:1027E0001026AEE7582384F84530DFF8B8C02368D8
:1027F000E3E72368DCE76268A2602D21002AC5F1C7
:10280000000584F8431002DB23F004032360DFF8A3
:1028100094C00A268246B5FBF6F306FB13512A46FE
:102820001CF801100AF8011DB2421D46F3D2082E11
:1028300099D12368D90796D5626823699A4292DCB8
:1028400030230AF8013C0AF1FF3A8CE71568BCE72F
:10285000002DDFD19CF8003084F8423004F1420AA8
:102860007FE710266DE713F0400F0B6803F10405B6
:102870000D600CBF1D681D885DE713F0400F0B68ED
:10288000626903F104050D601B6814BF1A801A60A9
:10289000F5E60A68B2F9005004320A602A463CE7BD
:1028A00060687FE780CC040894CC04080EB410B5AF
:1028B000044683B008B183695BB106ABA168059A91
:1028C00001932046FFF7B4FC03B0BDE8104003B00D
:1028D000704700F01FFEF0E70FB410B50A4B1C68FC
:1028E00082B00CB1A3695BB105ABA168049A0193F6
:1028F0002046FFF79DFC02B0BDE8104004B07047D1
:10290000204600F007FEEFE70800002038B5074D2D
:102910000022044608462A6002F092F8431C00D0C8
:1029200038BD2B68002BFBD0236038BDE4080020A5
:1029300038B5446C0CB1002038BD80210546FFF746
:10294000D9FB0246686430B1031F7C3243F8044F60
:102950009342FBD1EFE74FF0FF3038BD1F29F8B5A8
:10296000054608D8466C0C4617464EB156F824006A
:1029700046F82470F8BD162303604FF0FF30F8BD11
:102980008021FFF7B7FB0646686440B1031F00F1E2
:102990007C05002143F8041F9D42FBD1E6E74FF080
:1029A000FF30F8BD1F2938B5054620D8426C0C46CB
:1029B0006AB152F8213053B1012B16D0591C10D0F6
:1029C0000025204642F824509847284638BD28461E
:1029D00000F0F8F8224601462846BDE8384000F0ED
:1029E000DBB816230360012038BD002038BD162354
:1029F00003604FF0FF3038BD1F292AD8426C38B52C
:102A00000C46054682B152F8243002EB84024BB1E9
:102A1000591C19D0012B15D0002520461560984768
:102A2000284638BD012038BD8021FFF763FB0246F0
:102A3000686458B1031F00217C3043F8041F98429A
:102A4000FBD1E0E7032038BD022038BD4FF0FF3056
:102A500038BD4FF0FF30704738B5144B1F281D6844
:102A60001FD86A6C044662B152F820304BB1012B7A
:102A700015D0591C0FD0002542F820509847284601
:102A800038BD284600F09EF8224601462846BDE89B
:102A9000384000F081B816232B60012038BD00209B
:102AA00038BD16232B604FF0FF3038BD08000020E2
:102AB000124B1F2870B51E6808D80D46716C04466D
:102AC00049B151F8240041F8245070BD16233360F9
:102AD0004FF0FF3070BD80213046FFF70BFB014601
:102AE000706440B1031F00F17C0C002243F8042FF6
:102AF0006345FBD1E5E74FF0FF3070BD08000020D3
:102B000038B50B4B1D686C6C0CB1002038BD8021B2
:102B10002846FFF7EFFA686438B1031F00F17C0222
:102B200043F8044F9342FBD1EFE74FF0FF3038BD3D
:102B30000800002038B5174B1F281D6826D86A6C7E
:102B4000044682B152F8243002EB84024BB1591C86
:102B50001AD0012B16D0002520461560984728462C
:102B600038BD012038BD80212846FFF7C3FA024650
:102B7000686458B1031F00217C3043F8041F83426E
:102B8000FBD1DFE7032038BD022038BD4FF0FF3016
:102B900038BD00BF0800002070B50C46084D034644
:102BA0000026204611461C462E6001F031FF431CD2
:102BB00000D070BD2B68002BFBD0236070BD00BF20
:102BC000E408002001F014BF000000000000000035
:102BD00000000000000000000000000000000000F5
:102BE000A2EB0300704700BF02780B78012A28BFD0
:102BF0009A42F5D16DE9044540EA0104CDE9026746
:102C00006FF0000C4FEA447212B380EA010414F032
:102C1000070F6AD100F0070420F0070004F0030555
:102C200021F007014FEAC505F0E8042314F0040F72
:102C3000F1E804670CFA05F462EA040266EA0406A5
:102C40000AD063EA0403624667EA0407664603E0C3
:102C5000F0E80423F1E8046782FA4CF582EA0604FE
:102C6000A4FA8CF46CBB83FA4CF583EA0705A5FA49
:102C70008CF595B950E9022351E9026782FA4CF5C7
:102C800082EA0604A4FA8CF483FA4CF583EA070579
:102C9000A5FA8CF52543DBD09CB92DBAB5FA85F49D
:102CA00024F0070427FA04F1DDE9026723FA04F3AC
:102CB00003F0FF0001F0FF01FDE80445A0EB010077
:102CC000704724BAB4FA84F424F0070426FA04F115
:102CD000DDE9026722FA04F202F0FF0001F0FF01D1
:102CE000FDE80445A0EB0100704714F0030F3CD150
:102CF00010F0030428D150F8082B51F8083B82FA51
:102D00004CF582EA0305A5FA8CF55DB950F8042C60
:102D100051F8043C82FA4CF582EA0305A5FA8CF5D9
:102D2000002DE8D02DBAB5FA85F424F0070423FA73
:102D300004F122FA04F202F0FF0001F0FF01FDE8C5
:102D40000445A0EB010070474FEAC40420F00300E3
:102D500050F8082B21F0030151F8083B0CFA04F459
:102D600062EA040263EA0403C9E710F003041AD01C
:102D7000A1EB040120F00300E40750F8042B06D077
:102D80000FD28B785FFAA2F4E41A06D12BB1CB787C
:102D90005FFAB2F4E41A00D11BB920465DF8104B7B
:102DA000704701F1040150F8042BCC0721F0030116
:102DB00051F8043B48D824D222F07F4482FA4CF5E3
:102DC00094EA1325A5FA8CF50AD165B951F8043BAC
:102DD00084EA0204B4EB036F0ED150F8042BEBE746
:102DE0004FEA132355E035F07F454DD10878FDE8D3
:102DF0000445C0F1000070474FEA126203F0FF0380
:102E000047E002EA1C4482FA4CF594EA1345A5FA1D
:102E10008CF50AD165B951F8043B84EA0204B4EB9D
:102E2000034F0CD150F8042BEBE74FEA134330E08B
:102E300015EA1C4528D10B884FEA124229E04FEAD7
:102E4000124203EA1C4324E002F0FF0482FA4CF52C
:102E500094EA1365A5FA8CF50AD165B951F8043BDB
:102E600084EA0204B4EB032F09D150F8042BEBE7FA
:102E70004FEA13630DE015F0FF0F05D10B684FEA21
:102E8000122223F07F4304E04FF00000FDE80445E8
:102E9000704712BA1BBA82FA4CF482EA0304A4FA0D
:102EA0008CF5B5FA85F402FA04F203FA04F34FEA5A
:102EB0001260FDE80445A0EB13607047F8B50D46BD
:102EC0001446064608B1836943B3254B9C422AD079
:102ED000244B9C4229D0244B9C4208BFF468A38910
:102EE000A269A2601A0722D5236903B32268616927
:102EF000D31AEDB299422F4629DD0133A168013979
:102F0000A160511C2160157062699A4216D0A38994
:102F1000DB0701D50A2D11D03846F8BD00F0FAFACA
:102F20000F4B9C42D4D17468D9E7B468D7E72146E7
:102F3000304600F027F838B92369D7E721463046F4
:102F400000F082F90028E7D04FF0FF37E4E7214690
:102F5000304600F079F90028F6D122680123CDE748
:102F6000E4830308C4830308A483030810B4044C57
:102F700003460A4620685DF8044B1946FFF79EBFDA
:102F8000080000203C4B70B51D6806460C460DB18C
:102F9000AB69E3B1394B9C421FD0394B9C424DD0B9
:102FA000384B9C4208BFEC68B4F90C3018079AB251
:102FB00019D5216911B312F001002FD00020A060B3
:102FC00060694042A06100292ED0002070BD2846D3
:102FD00000F0A0FA294B9C42DFD16C68B4F90C30A8
:102FE00018079AB2E5D4D1063ED5520728D42169F4
:102FF00043F00803A3819AB20029DCD102F42070C7
:10300000B0F5007FD7D02146304600F05FFCB4F920
:103010000C3021699AB212F00100CFD1950758BF48
:103020006069A0600029D0D1120658BF0846CDD5EE
:1030300043F04003A3814FF0FF3070BDAC68B3E7AD
:10304000616B51B104F14402914204D03046FEF765
:10305000EFFFB4F90C300022626321690022C4E959
:10306000001223F02403C3E7092243F04003326037
:103070004FF0FF30A38170BD08000020E4830308F7
:10308000C4830308A4830308F0B5264C256885B0E3
:10309000064605B36C681F2C41DCA6B1D5F8880044
:1030A00048B3D0F8007140F824204FF0010C0CFA1E
:1030B00004FC00EB84024CEA0707022EC0F8007102
:1030C000C2F8803010D0A31C01346C6045F8231086
:1030D000002005B0F0BD1448144D25600028D9D05B
:1030E0000068C5F88800D5E7D0F8043143EA0C033E
:1030F000C0F80431E7E70E480191CDE9022370B131
:103100004FF48470FEF7EAFD48B10027C0E940772C
:10311000DDE902236C680199C5F88800C3E74FF028
:10312000FF30D6E7E0080020A08303085408002001
:10313000DD1C00088B891A072DE9F0410C468046FA
:103140003FD44A68002A58DDE66A002E52D0002299
:10315000D8F80050C8F8002013F4805251D1012350
:10316000216A4046B047431C5ED0A389E66A5F07E8
:1031700005D56368C01A636B0BB1236CC01A216A52
:10318000024600234046B047411C3CD1D8F80030ED
:10319000002B38D01D2B01D0162B4DD123690022D6
:1031A000C4E90032616BC8F8005019B304F144035C
:1031B000994202D04046FEF73BFF00206063BDE825
:1031C000F0810E69B6B10D680E609A070CBF4B69AD
:1031D0000023AD1B8B600BE02B463246216AA76AA9
:1031E0004046B847B0F1000CA5EB0C05664413DD72
:1031F000002DF1DC0020BDE8F0810A6C002AA3DC80
:10320000F8E7606DB3E70023636023692360A38957
:10321000DB04C7D56065C5E7A38943F040034FF0E1
:10322000FF30A381BDE8F081D8F80030002B9CD09E
:103230001D2B06D0162B04D0A38943F04003A38195
:10324000D9E7C8F80050D5E738B50B69BBB10D46D2
:10325000044608B18369B3B10D4B9D4211D00D4BAB
:103260009D4213D00C4B9D4208BFE568B5F90C3068
:103270002BB129462046BDE83840FFF75BBF002050
:1032800038BD6568F2E700F045F9E5E7A568EDE7C8
:10329000E4830308C4830308A483030838B540B358
:1032A00003690446E3B1174B1D680DB1AB69CBB19F
:1032B000154B9C420FD0154B9C4221D0144B9C4285
:1032C00008BFEC68B4F90C3053B121462846BDE87C
:1032D0003840FFF72FBF6C68B4F90C30002BF4D1E5
:1032E000002038BD284600F015F9074B9C42E2D17A
:1032F000F1E7084B08491868BDE8384000F0C2BA49
:10330000AC68DFE708000020E4830308C4830308F7
:10331000A48303089C8303084932000800207047F7
:10332000014900F0AFBA00BF4932000800207047E1
:1033300070B568224D1E02FB05F50E4605F17401BD
:10334000FEF7D8FE044640B100210C30C4E9001657
:10335000A06005F16802FEF719FE204670BD00BFAF
:10336000274B2DE9F0411E68B369074653B3483631
:103370004FF00408D6E90134013B04D51EE05A1C85
:1033800004F168041AD0B4F90C50013B002DF6D1B9
:103390001C4B6566C4E90055C4E90253C4E90455F1
:1033A000A5610822294604F15C00FEF7EFFDC4E99F
:1033B0000D55C4E912552046BDE8F08135682DB1A0
:1033C0002E46D7E7304600F01FF8D0E74FF4D6710D
:1033D0003846FEF78FFE044668B10560C0F80480E9
:1033E0000C302946A06025464FF4D072FEF7CEFD82
:1033F00034602E46BEE70C2330603B60DBE700BF45
:103400009C8303080100FFFF2DE9F84F344B354939
:103410001A68816290424FF00003C0E912330365DD
:1034200004BF012383610546FFF79AFF68602846C1
:10343000FFF796FFA8602846FFF792FF6F68E860E5
:1034400000240423C7E9024308222146C7E90044B7
:10345000C7E904447C66BC6107F15C00FEF796FD99
:10346000DFF88CB0AE68DFF88CA0DFF88C90DFF866
:103470008C801D4BC7F828A0C7E9087BC7F82C90A3
:10348000C7F830800822F360C6E90044C6E9044466
:103490007466B460B461214606F15C00FEF776FD07
:1034A000C6E9086BC6E90AA9C6F83080EE680F4B7A
:1034B000F360C6E90044C6E904447466B460B461CC
:1034C0002146082206F15C00FEF760FD0123C6E9F3
:1034D000086BC6E90B98C6F828A0AB61BDE8F88F69
:1034E0009C83030821330008090001001200020038
:1034F000E93A0008113B0008513B0008713B000805
:10350000024B0349186800F0BDB900BF9C83030853
:1035100049320008836903B976E77047704700BFF6
:10352000704700BF704700BF704700BF024B0349A0
:10353000186800F087B900BF080000201D3300089C
:10354000024B0349186800F07DB900BF0800002055
:103550002D3300089368002B00F085802DE9F04F93
:10356000B1F90C300C461907804683B0174698B263
:1035700025D523691BB310F002033D682DD04FF011
:10358000000ADFF8BCB25646B9465E45334652469D
:1035900028BF5B464046002E52D0216AA76AB84732
:1035A000002856DDD9F808301B1A8244361AC9F8AB
:1035B0000830002BE9D1002003B0BDE8F08F214690
:1035C0004046FFF7DFFC002840F03681B4F90C30AC
:1035D0003D6898B210F00203D1D110F0010944D136
:1035E0004E46009746B38205D4F808B040F1838078
:1035F000B3455A4600F2B28010F4906F40F0BF809D
:10360000206801924946FEF745FCA368019AA3EBA6
:103610000B012368A1601344B24623600026009B7F
:103620009868A0EB0A00D14498600028C3D0B4F990
:103630000C0080B2002ED6D1D5E900960835D1E72E
:10364000D5E900A60835A0E721464046FFF7FCFD76
:1036500080B3B4F90C3043F040034FF0FF30A38146
:1036600003B0BDE8F08F002070471E46AA46994679
:1036700018461D46009756B388B34A46D4E904134A
:103680002068B24228BF3246884205D9A16803EBC0
:10369000010B5A4500F3A680934263DC216AA76AB6
:1036A0002A464046B847B0F1000BD2DDB9EB0B0912
:1036B000CAD00120009A9368A3EB0B035D44A6EBEC
:1036C0000B069360002B3FF476AF002ED4D10AF1A5
:1036D000080353E902569A460833002EF9D03246C1
:1036E0000A21284600F084F9002800F09C8001306F
:1036F000A0EB0509C1E720682369984216D86369E1
:10370000B34213D86FF00042B24228BF3246216A5A
:1037100092FBF3F2A76A02FB03F340464A46B8471E
:10372000B0F1000A95DDA6EB0A0678E7B345DA4664
:1037300028BFB24652464946FEF7ACFBA368226852
:10374000A3EB0A035244A3602260002BEBD1214675
:103750004046FFF779FD0028E5D07AE72068B346B8
:1037600032464EE729460192FEF794FB019AA36880
:103770009B1AA360236813442360934696E723684B
:103780002169A3EB010B636903EB430A0AEBDA7AC5
:103790000BF101034FEA6A0A33445345524684BF92
:1037A0009A46524643052CD511464046FEF7A2FCE8
:1037B00000283BD05A4621690190FEF7D1FAA28930
:1037C000019B22F4906242F08002A28103EB0B0085
:1037D0002361AAEB0B03C4F814A0A3602060B346D6
:1037E00032460EE729465A46FEF754FB23685B44EF
:1037F000236021464046FFF727FD00283FF456AFDF
:1038000027E7404600F048F903460028DED1216949
:103810004046FEF70DFCB4F90C300C2223F0800377
:10382000C8F8002017E7721C914627E70C22B4F96C
:103830000C30C8F800200EE74FF0FF30BCE600BFA8
:1038400000FCFF7F2DE9F041884600F14807002683
:10385000D7E90154013D0FD4A389012B05F1FF35B0
:1038600006D9B4F90E300133204601D0C0470643D3
:103870006B1C04F16804EFD13F68002FE8D130469B
:10388000BDE8F0812DE9F8430746884600F1480677
:103890004FF00009D6E90154013D11D4A389012B51
:1038A00005F1FF3508D9B4F90E300133214603D0B4
:1038B0003846C04749EA00096B1C04F16804EDD1A1
:1038C0003668002EE6D14846BDE8F883F0B58B890E
:1038D0000C46990797B007D504F147030122C4E9C4
:1038E0000432236017B0F0BDB4F90E10002905466C
:1038F0002DDB6A4600F068F9002827DB019E06F4FC
:1039000070464FF48067A6F50056B6FA86F639463B
:1039100028467609FEF7EEFB30B3A3891A4AAA625D
:1039200043F08003C4E90407A3812060002ED9D0AE
:10393000B4F90E10284600F05DF90028D2D0A38912
:1039400023F0030343F00103A381CBE7A38913F022
:10395000800F14BF40274FF4806739462846002661
:10396000FEF7C8FB0028D8D1B4F90C309A05B9D4B9
:1039700023F0030304F1470243F002030121C4E9E9
:103980000421A3812260ADE72133000870B50C4605
:10399000B1F90E10002996B016461D4613DB6A4693
:1039A00000F012F900280EDB019901F47041A1F535
:1039B0000051B1FA81F14FF4806349090020296078
:1039C000336016B070BDB4F90C3000221B062A60BB
:1039D00004D540230020336016B070BD4FF48063DF
:1039E0000020336016B070BD000000000000000031
:1039F00001F0FF01102A2BDB10F0070F08D010F8A0
:103A0000013B013A8B422DD010F0070F42B3F6D1A3
:103A1000F0B441EA012141EA014122F007047FF0BC
:103A200000070023F0E80256083C85EA010586EA13
:103A3000010685FA47F5A3FA87F586FA47F6A5FA4F
:103A400087F68EB9EED1F0BC01F0FF0102F007025B
:103A500032B110F8013B013A83EA010313B1F8D106
:103A60000020704701387047002D06BF35460338E7
:103A7000073815F0010F07D1013015F4807F02BF20
:103A8000013015F4C03F0130F0BC0138704700BF71
:103A9000704700BF704700BFF8B51446F9B1CAB10E
:103AA00006460D4600F0CEF8A04202D32F46384617
:103AB000F8BD21463046FEF71DFB07460028F6D02C
:103AC00022462946FEF74CF930462946FEF7B0FA61
:103AD0003846F8BD2746FEF7ABFA3846F8BDBDE8D4
:103AE000F8401146FEF706BB10B50C46B1F90E10B2
:103AF00000F0B2F8002803DB636D0344636510BD7A
:103B0000A38923F48053A38110BD00BF0020704718
:103B10002DE9F0410C46B1F90C101F46CB050546C6
:103B200016460BD421F48051A1813B46B4F90E1006
:103B300032462846BDE8F04100F01EB8B4F90E1038
:103B40000223002200F068F8B4F90C10EAE700BF85
:103B500010B50C46B1F90E1000F05EF8A389421CB6
:103B60000EBF23F4805343F480536065A38110BDDE
:103B7000B1F90E1000F016B838B50C46084D844661
:103B8000114620461A4600232B60644600F066FF6B
:103B9000431C00D038BD2B68002BFBD0236038BD00
:103BA000E408002038B5074D0022044608462A6084
:103BB00000F00EFF431C00D038BD2B68002BFBD05B
:103BC000236038BDE408002070B50C46084D03465C
:103BD0000026204611461C462E6000F001FF431CC3
:103BE00000D070BD2B68002BFBD0236070BD00BFE0
:103BF000E408002038B5074D0022044608462A6034
:103C000000F0FEFE431C00D038BD2B68002BFBD01B
:103C1000236038BDE408002038B50C46084D8446C2
:103C2000114620461A4600232B60644600F0F8FE39
:103C3000431C00D038BD2B68002BFBD0236038BD5F
:103C4000E408002051F8040C0028A0F10400BCBFD7
:103C50000B58C018704700BF38B50C46084D844655
:103C6000114620461A4600232B60644600F0E0FE11
:103C7000431C00D038BD2B68002BFBD0236038BD1F
:103C8000E408002081F0004102E000BF83F000431F
:103C900030B54FEA41044FEA430594EA050F08BFE7
:103CA00090EA020F1FBF54EA000C55EA020C7FEAAB
:103CB000645C7FEA655C00F0E2804FEA5454D4EB28
:103CC0005555B8BF6D420CDD2C4480EA020281EAF2
:103CD000030382EA000083EA010180EA020281EA2A
:103CE0000303362D88BF30BD11F0004F4FEA01317C
:103CF0004FF4801C4CEA113102D0404261EB41018B
:103D000013F0004F4FEA03334CEA133302D0524210
:103D100063EB430394EA050F00F0A780A4F10104CC
:103D2000D5F1200E0DDB02FA0EFC22FA05F2801806
:103D300041F1000103FA0EF2801843FA05F35941EC
:103D40000EE0A5F120050EF1200E012A03FA0EFC6B
:103D500028BF4CF0020C43FA05F3C01851EBE37195
:103D600001F0004507D54FF0000EDCF1000C7EEBB2
:103D700000006EEB0101B1F5801F1BD3B1F5001FF0
:103D80000CD349085FEA30004FEA3C0C04F101040F
:103D90004FEA445212F5800F80F09A80BCF1004F38
:103DA00008BF5FEA500C50F1000041EB045141EABA
:103DB000050130BD5FEA4C0C404141EB0101013C83
:103DC00028BFB1F5801FE9D291F0000F04BF014672
:103DD0000020B1FA81F308BF2033A3F10B03B3F144
:103DE00020020CDA0C3208DD02F1140CC2F10C02D4
:103DF00001FA0CF021FA02F10CE002F11402D8BF32
:103E0000C2F1200C01FA02F120FA0CFCDCBF41EAFD
:103E10000C019040E41AA2BF01EB0451294330BDCC
:103E20006FEA04041F3C1CDA0C340EDC04F11404A9
:103E3000C4F1200220FA04F001FA02F340EA030080
:103E400021FA04F345EA030130BDC4F10C04C4F1C6
:103E5000200220FA02F001FA04F340EA03002946A6
:103E600030BD21FA04F0294630BD94F0000F83F4F0
:103E7000801306BF81F480110134013D4EE77FEAD3
:103E8000645C18BF7FEA655C29D094EA050F08BF1F
:103E900090EA020F05D054EA000C04BF1946104600
:103EA00030BD91EA030F1EBF0021002030BD5FEA44
:103EB000545C05D14000494128BF41F0004130BD6C
:103EC00014F580043CBF01F5801130BD01F00045C0
:103ED00045F0FE4141F470014FF0000030BD7FEA33
:103EE000645C1ABF194610467FEA655C1CBF0B462E
:103EF000024650EA013406BF52EA033591EA030F45
:103F000041F4002130BD00BF90F0000F04BF00213C
:103F1000704730B54FF4806404F132044FF000056F
:103F20004FF0000150E700BF90F0000F04BF0021E8
:103F3000704730B54FF4806404F1320410F000454E
:103F400048BF40424FF000013EE700BF42004FEA49
:103F5000E2014FEA31014FEA02701FBF12F07F43C6
:103F600093F07F4F81F06051704732F07F4208BF7D
:103F7000704793F07F4F04BF41F40021704730B584
:103F80004FF4607401F0004521F000411CE700BFD0
:103F900050EA010208BF704730B54FF000050AE053
:103FA00050EA010208BF704730B511F0004502D554
:103FB000404261EB41014FF4806404F132045FEA56
:103FC000915C3FF4D8AE4FF003025FEADC0C18BFFF
:103FD00003325FEADC0C18BF033202EBDC02C2F1F1
:103FE000200300FA03FC20FA02F001FA03FE40EA83
:103FF0000E0021FA02F11444BDE600BF70B54FF087
:10400000FF0C4CF4E06C1CEA11541DBF1CEA135564
:1040100094EA0C0F95EA0C0F00F0DEF82C4481EACC
:10402000030621EA4C5123EA4C5350EA013518BFEC
:1040300052EA033541F4801143F4801338D0A0FBD9
:1040400002CE4FF00005E1FB02E506F00042E0FB86
:1040500003E54FF00006E1FB03569CF0000F18BF8C
:104060004EF0010EA4F1FF04B6F5007F64F5407434
:1040700004D25FEA4E0E6D4146EB060642EAC621C7
:1040800041EA55514FEAC52040EA5E504FEACE2E34
:10409000B4F1FD0C88BFBCF5E06F1ED8BEF1004F37
:1040A00008BF5FEA500E50F1000041EB045170BDB3
:1040B00006F0004646EA010140EA020081EA0301F7
:1040C000B4EB5C04C2BFD4EB0C0541EA045170BDF3
:1040D00041F480114FF0000E013C00F3AB8014F16D
:1040E000360FDEBF002001F0004170BDC4F10004B6
:1040F000203C35DA0C341BDC04F11404C4F1200537
:1041000000FA05F320FA04F001FA05F240EA020091
:1041100001F0004221F0004110EBD37021FA04F6C7
:1041200042EB06015EEA430E08BF20EAD37070BD81
:10413000C4F10C04C4F1200500FA04F320FA05F0E0
:1041400001FA04F240EA020001F0004110EBD370E2
:1041500041F100015EEA430E08BF20EAD37070BD52
:10416000C4F1200500FA05F24EEA020E20FA04F32B
:1041700001FA05F243EA020321FA04F001F00041DA
:1041800021FA04F220EA020000EBD3705EEA430E4B
:1041900008BF20EAD37070BD94F0000F0FD101F07A
:1041A0000046400041EB010111F4801F08BF013CB3
:1041B000F7D041EA060195F0000F18BF704703F0F1
:1041C0000046520043EB030313F4801F08BF013D78
:1041D000F7D043EA0603704794EA0C0F0CEA135534
:1041E00018BF95EA0C0F0CD050EA410618BF52EAEE
:1041F0004306D1D181EA030101F000414FF00000F4
:1042000070BD50EA410606BF1046194652EA430601
:1042100019D094EA0C0F02D150EA013613D195EA75
:104220000C0F05D152EA03361CBF104619460AD1BD
:1042300081EA030101F0004141F0FE4141F47001C7
:104240004FF0000070BD41F0FE4141F4780170BDB7
:1042500070B54FF0FF0C4CF4E06C1CEA11541DBF1C
:104260001CEA135594EA0C0F95EA0C0F00F0A7F81E
:10427000A4EB050481EA030E52EA03354FEA01314B
:1042800000F088804FEA03334FF0805545EA13135E
:1042900043EA12634FEA022245EA111545EA106526
:1042A0004FEA00260EF000419D4208BF964244F1BD
:1042B000FD0404F5407402D25B084FEA3202B61ADC
:1042C00065EB03055B084FEA32024FF480104FF4B0
:1042D000002CB6EB020E75EB030E22BFB61A754624
:1042E00040EA0C005B084FEA3202B6EB020E75EBB7
:1042F000030E22BFB61A754640EA5C005B084FEA1F
:104300003202B6EB020E75EB030E22BFB61A7546EB
:1043100040EA9C005B084FEA3202B6EB020E75EBF6
:10432000030E22BFB61A754640EADC0055EA060EB7
:1043300018D04FEA051545EA16754FEA06164FEAFA
:10434000C30343EA52734FEAC2025FEA1C1CC0D1A6
:1043500011F4801F0BD141EA00014FF000004FF033
:10436000004CB6E711F4801F04BF01430020B4F1F4
:10437000FD0C88BFBCF5E06F3FF6AFAEB5EB030CAC
:1043800004BFB6EB020C5FEA500C50F1000041EBA9
:10439000045170BD0EF0004E4EEA113114EB5C0476
:1043A000C2BFD4EB0C0541EA045170BD41F4801149
:1043B0004FF0000E013C90E645EA060E8DE60CEA51
:1043C000135594EA0C0F08BF95EA0C0F3FF43BAF6E
:1043D00094EA0C0F0AD150EA01347FF434AF95EA25
:1043E0000C0F7FF425AF104619462CE795EA0C0F09
:1043F00006D152EA03353FF4FDAE1046194622E7D6
:1044000050EA410618BF52EA43067FF4C5AE50EAAF
:1044100041047FF40DAF52EA43057FF4EBAE12E79F
:104420004FF0FF3C06E000BF4FF0010C02E000BF80
:104430004FF0010C4DF804CD4FEA410C7FEA6C5C63
:104440004FEA430C18BF7FEA6C5C1BD001B050EA06
:10445000410C0CBF52EA430C91EA030F02BF90EAF1
:10446000020F0020704710F1000F91EA030F58BFB0
:10447000994208BF90422CBFD8176FEAE37040F012
:10448000010070474FEA410C7FEA6C5C02D150EAB0
:10449000013C07D14FEA430C7FEA6C5CD6D152EA6B
:1044A000033CD3D05DF8040B704700BF8446104630
:1044B00062468C461946634600E000BF01B5FFF72F
:1044C000B7FF002848BF10F1000F01BD4DF808EDFF
:1044D000FFF7F4FF0CBF012000205DF808FB00BFD0
:1044E0004DF808EDFFF7EAFF34BF012000205DF82A
:1044F00008FB00BF4DF808EDFFF7E0FF94BF012077
:1045000000205DF808FB00BF4DF808EDFFF7CEFF77
:1045100094BF012000205DF808FB00BF4DF808EDB6
:10452000FFF7C4FF34BF012000205DF808FB00BF87
:104530004FEA410212F5001215D211D56FF47873CB
:10454000B3EB625212D94FEAC12343F0004343EA6E
:10455000505311F0004F23FA02F018BF4042704749
:104560004FF00000704750EA013005D111F00040D3
:1045700008BF6FF0004070474FF00000704700BF69
:104580004FEA4102B2F1E04324BFB3F5001CDCF175
:10459000FE5C0DD901F0004C4FEAC0024CEA5070AD
:1045A000B2F1004F40EB830008BF20F001007047DC
:1045B00011F0804F21D113F13872BCBF01F00040DF
:1045C000704741F480114FEA5252C2F11802C2F111
:1045D000200C10FA0CF320FA02F018BF40F0010092
:1045E0004FEAC1234FEAD32303FA0CFC40EA0C0044
:1045F00023FA02F34FEA4303CCE77FEA625307D181
:1046000050EA01331EBF4FF0FE4040F440007047B7
:1046100001F0004040F0FE4040F40000704700BF51
:1046200053B94AB9002908BF00281CBF4FF0FF3119
:104630004FF0FF3000F0AAB9ADF1080C6DE904CEDF
:1046400000F03CF8DDF804E0DDE9022304B0704737
:1046500038B50022002304460D46FFF741FF28B974
:1046600020462946BDE8384000F00AB8204605F14A
:10467000004100F005F8404261EB410138BD00BF48
:10468000D0B50C4B002206460F46FFF7B7FC00F0F2
:104690007FF90446FFF738FC074B0022FFF7AEFC1A
:1046A00002460B4630463946FFF7F0FA00F070F943
:1046B0002146D0BD0000F03D0000F0412DE9F0475B
:1046C000089D04468E46002B4DD18A42944669D9F6
:1046D000B2FA82F252B101FA02F3C2F1200120FAD9
:1046E00001F10CFA02FC41EA030E94404FEA1C4827
:1046F000210CBEFBF8F61FFA8CF708FB16E341EA23
:10470000034306FB07F199420AD91CEB030306F1A8
:10471000FF3080F01F81994240F21C81023E6344C9
:104720005B1AA4B2B3FBF8F008FB103344EA03446D
:1047300000FB07F7A7420AD91CEB040400F1FF3382
:1047400080F00A81A74240F207816444023840EABF
:104750000640E41B00261DB1D4400023C5E90043F8
:104760003146BDE8F0878B4209D9002D00F0EF807B
:104770000026C5E9000130463146BDE8F087B3FAAE
:1047800083F6002E4AD18B4202D3824200F2F98096
:10479000841A61EB030301209E46002DE0D0C5E999
:1047A000004EDDE702B9FFDEB2FA82F2002A40F0E5
:1047B0009280A1EB0C014FEA1C471FFA8CFE0126E8
:1047C000200CB1FBF7F307FB131140EA01410EFB8C
:1047D00003F0884208D91CEB010103F1FF3802D233
:1047E000884200F2CB804346091AA4B2B1FBF7F02D
:1047F00007FB101144EA01440EFB00FEA64508D950
:104800001CEB040400F1FF3102D2A64500F2BB808C
:104810000846A4EB0E0440EA03409CE7C6F12007DB
:10482000B34022FA07FC4CEA030C20FA07F401FA21
:1048300006F31C43F9404FEA1C4900FA06F3B1FBAA
:10484000F9F8200C1FFA8CFE09FB181140EA01410F
:1048500008FB0EF0884202FA06F20BD91CEB0101AC
:1048600008F1FF3A80F08880884240F28580A8F104
:1048700002086144091AA4B2B1FBF9F009FB101156
:1048800044EA014100FB0EFE8E4508D91CEB0101F4
:1048900000F1FF346CD28E456AD90238614440EA97
:1048A0000840A0FB0294A1EB0E01A142C846A64617
:1048B00056D353D05DB1B3EB080261EB0E0101FAA0
:1048C00007F722FA06F3F1401F43C5E900710026FD
:1048D0003146BDE8F087C2F12003D8400CFA02FC53
:1048E00021FA03F3914001434FEA1C471FFA8CFE63
:1048F000B3FBF7F007FB10360B0C43EA064300FB53
:104900000EF69E4204FA02F408D91CEB030300F1F0
:10491000FF382FD29E422DD9023863449B1B89B2A7
:10492000B3FBF7F607FB163341EA034106FB0EF330
:104930008B4208D91CEB010106F1FF3816D28B42DD
:1049400014D9023E6144C91A46EA004638E72E46A9
:10495000284605E70646E3E61846F8E64B45A9D2A1
:10496000B9EB020864EB0C0E0138A3E74646EAE710
:10497000204694E74046D1E7D0467BE7023B6144BE
:1049800032E7304609E76444023842E7704700BF27
:104990004A0011D212F5001211D20DD56FF47873BE
:1049A000B3EB62520ED44FEAC12343F0004343EA13
:1049B000505323FA02F070474FF00000704750EA5E
:1049C000013002D14FF0FF3070474FF000007047C8
:1049D000024B58221A604FF0FF307047E408002065
:1049E000024B58221A604FF0FF307047E408002055
:1049F000024B58221A604FF0FF307047E408002045
:104A0000024B58221A600020704700BFE4080020C3
:104A1000024B58221A604FF0FF307047E408002024
:104A2000024B58221A604FF0FF307047E408002014
:104A3000024B58221A604FF0FF307047E408002004
:104A4000044A05491368002B08BF0B461844106040
:104A500018467047E8080020E8A00020024B5822C2
:104A60001A604FF0FF307047E4080020FEE700BFF7
:104A70007047FEE7FEE7FEE7FEE7704770477047C6
:104A800008B502F0E3FA08BD08B54FF4006001F084
:104A90002FFE08BD08B5042001F02AFE08BD000065
:104AA00008B5074B5B6913F4005F04D04FF4204056
:104AB00001F01EFE08BD4FF4006001F019FEF9E799
:104AC000003C014008B5024B186F01F01FFF08BD04
:104AD000EC08002008B5024B186B01F017FF08BD69
:104AE000080C002008B5FFF7FDFF08BD08B5024B14
:104AF000D86E01F00BFF08BD7009002008B5FFF764
:104B0000FDFF08BD08B533F0B9F908BD10B40F4A70
:104B1000D2F8883043F47003C2F888300C4B19681F
:104B200041F001011960002098601C68094921408A
:104B3000196009495960196821F480211960D86009
:104B40004FF0006393605DF8044B704700ED00E0A8
:104B500000380240FFFFF6FE103000242DE9F0413E
:104B600082B005460E46174698461B4B4FF440321E
:104B70005A601A4B1B681A4C4FF0340C0CFB034C58
:104B8000DCF84830022B0DD0134B00229A601248FB
:104B9000089BC360134B036001F0F0FF30B102B01B
:104BA000BDE8F0810C4B02229A60F0E729460A48E2
:104BB00002F06EF90028F2D1CDF800803B46324673
:104BC0000999054802F008F80028E8D10A210248AE
:104BD00002F01EF8E3E700BF100A0020F4090020ED
:104BE000500A002000B00240F0B583B005460E46E2
:104BF000174614484FF48032426000248460C46039
:104C00000463FF224263C36284620F4B036001F0BE
:104C1000B5FF08B103B0F0BD01210A4802F038F930
:104C20000028F7D1012300933B4632462946054828
:104C300001F0D2FF0028EDD10A21024801F0E8FF7F
:104C4000E8E700BF100A002000B00240034B1A68DA
:104C5000034B342101FB0233186E7047F409002026
:104C6000500A0020034B1A68034B342101FB023326
:104C7000586E7047F4090020500A002070B58EB0BD
:104C800004460E4600250195FFF7E0FF02900395CC
:104C9000FFF7E8FF049005950A96FF230693079512
:104CA0008DF834508DF835508DF836504FF4C06380
:104CB000089307230993FFF7C9FF0B90FFF7D2FF73
:104CC0000C90224601A90A4802F03EFB094A04EB77
:104CD000440302EB83034FF0FF31596006499960AA
:104CE00004EB44044FF07F4342F824300EB070BD13
:104CF000500A0020F809002080000020014B1860B5
:104D0000704700BFF4090020034B1B6803EB43030B
:104D1000024A42F823007047F4090020F8090020F5
:104D2000044B1B6803EB4303034A02EB8303586005
:104D3000704700BFF4090020F8090020044B1B68ED
:104D400003EB4303034A02EB83039860704700BF01
:104D5000F4090020F8090020F0B583B005460B4B9C
:104D60001E680B4B342202FB0633DF6DFFF76EFF2C
:104D70000446FFF777FF0346019500220092224682
:104D800039463046FFF7EAFE03B0F0BDF4090020D3
:104D9000500A0020F8B504460D461646104B1A6816
:104DA000104B342101FB02339B6C022B0BD00D4BBB
:104DB000342101FB0232D76DFFF748FF00FB0544A9
:104DC00047F82460F8BD074B01FB0232D76DFFF7AF
:104DD0003DFF00FB0544B6B227F81460F2E700BFC0
:104DE000F4090020500A00202DE9F04F83B08146DD
:104DF0000E460092344B1B6803EB4303334A02EB2D
:104E000083039B68DA8801929D8805F1070B4FEABE
:104E1000EB0B4FEACB085FFA88F8EBB2A8EB03087C
:104E20005FFA88F84FF0000A34E0009AD75C00245B
:104E300014E00099CB5C577847EA0327F7E7224B49
:104E40001B6803EB4303214A02EB830309EB0400D5
:104E50005A68314680B2FFF79DFF0134A54215D94B
:104E60002B1B4344013B012202FA03F33B42E6D0F1
:104E7000154B1B6803EB430309EB0400134A52F87C
:104E80002320314680B2FFF785FFE6E70136B6B250
:104E90000AF1010A019B534512D90AFB0BF3009A50
:104EA0001A44BBF1010FC0D0BBF1020FC1D0009971
:104EB000CB5C57783F0247EA034793781F43B6E736
:104EC00003B0BDE8F08F00BFF4090020F80900200E
:104ED00038B50B4B1B6803EB43030A4C04EB83030D
:104EE0009C682568A2F12003E28802FB03F3A288F4
:104EF0000732D21002FB0352FFF776FF38BD00BF26
:104F0000F4090020F80900202DE9F04104460E467E
:104F1000154698469446002700E001371CF8012BFF
:104F2000002AFAD1FFF792FE2A4B1B6803EB4303DA
:104F3000294A02EB83039B689B88B0FBF3F0B8F12E
:104F4000010F07D0B8F1020F0CD023B2002B3EDDC9
:104F5000002721E0C01B00FB03F3C3F34F031C44F5
:104F6000A4B2F2E7C01B10FB03F39BB21C1BA4B25C
:104F7000EBE7424631462046FFF7AAFF154B1B6878
:104F800003EB4303144A02EB83039B6898880444B1
:104F9000A4B201350137BFB295F80080FFF756FE85
:104FA0000C4B1B6803EB43030B4A02EB83039B6828
:104FB0009A8802FB17039BB2B8F1000118BF0121C8
:104FC000934238BF00210029D3D1BDE8F0810124EC
:104FD000BEE700BFF4090020F80900202DE9F84FD2
:104FE00082468B461446967AD37A06EB0326137BC9
:104FF00006EB0346537B06EB0366977CD37C07EBFB
:105000000327137D07EB0347537D07EB036792F8F4
:105010001680D37D08EB0328137E08EB0348537EEC
:1050200008EB036892F81C90537F09EB03291C4B93
:105030001A681C4B342101FB0233DD6DFFF706FEBD
:105040000BFB00AA05EB8A05A9F12003072B06D963
:10505000A9F11003072B0FD84FF0020A01E04FF01F
:10506000000A08F1FF3307FB03F34FEAD90909FBF4
:105070000366344400260FE04FF0010AF1E753467F
:105080003A4629462046FFF7AFFDFFF7DFFD05EB67
:10509000800507FB194401364645F0D3BDE8F88F7B
:1050A000F4090020500A00202DE9F04383B00546A2
:1050B000884616461F461E4C226802EB42021D4BD4
:1050C00053F82200FFF720FE24681B4B342202FB1A
:1050D00004339B6C022B1ED0174B342202FB04338B
:1050E000D3F85C90FFF7B2FD00FB085509EB85058E
:1050F000FFF7ACFD04EB44020E4B53F82230019352
:10510000801B00903B46324629462046FFF726FD8D
:1051100003B0BDE8F083084B02FB0433D3F85C9086
:10512000FFF794FD00FB085509EB4505E0E700BFDC
:10513000F4090020F8090020500A0020F0B58FB0D3
:105140004A4B5A6C42F080625A645A6C02F0806298
:105150000092009A1A6B42F400021A631A6B02F46E
:1051600000020192019A1A6B42F010021A631A6B44
:1051700002F010020292029A1A6B42F040021A6385
:105180001A6B02F040020392039A1A6B42F4807287
:105190001A631A6B02F480720492049A1A6B42F436
:1051A00000721A631A6B02F400720592059A1A6B68
:1051B00042F480621A631A6B02F480620692069AC5
:1051C0001A6B42F480721A631A6B02F480720792AF
:1051D000079A1A6B42F480621A631B6B03F48063B4
:1051E0000893089B1023099302240A9400230B932D
:1051F0000C940E250D9509A91D4801F06FF94FF487
:10520000805709970A9409230D9309A9194801F0B9
:1052100065F94FF4464309930A940D95164E09A972
:10522000304601F05BF94EF6FF7309930A940D9531
:1052300009A9124801F052F9F72309930A940D9530
:105240000F4C09A9204601F049F9099701250A9553
:1052500009A9304601F042F9082309930A9509A9E2
:10526000204601F03BF90FB0F0BD00BF003802400E
:1052700000100240001802400020024000240240BA
:105280000028024008B5064808230360C023436194
:105290000523C3614FF48033C36200F049FE08BDAB
:1052A000F80A002010B5254C282363610923A36167
:1052B0003523E3610B23236240F21B13A36240F208
:1052C0001523636240F21D13236340F23523E3622A
:1052D00000212046FFF7D6FF4FF4F07323664FF40A
:1052E00088736366002384F8343084F8353084F89A
:1052F00036306360A360E3602361114B2360204676
:1053000002F056F8A0B10D4801F0A4FF01224FF4BD
:1053100080510C4801F0E5F9012208210A4801F00A
:10532000E0F900F01FF90948FFF708FD002010BD63
:1053300000212046FFF702FFE5E700BF500A0020EA
:105340000068014000200240002802408000002048
:105350002DE9F04383B081464FF00008CDF804807A
:10536000204C0126266010276760A660C4F80C80D8
:105370001D4D4FF6FF722146284602F03DF830469B
:1053800001F076FE022323606760A660C4F80C80FB
:105390004FF6FF722146284602F02EF803232360C1
:1053A00067600823A360C4F80C804FF6FF722146A3
:1053B000284602F021F84FF4087301930423236078
:1053C0006760A660019BE3604FF6FF7221462846A6
:1053D00002F012F84946284602F02FF803B0BDE863
:1053E000F08300BF7C0B0020080C002070B58EB04D
:1053F0000646534B9A6B42F001029A639A6B02F095
:1054000001020192019A1A6B42F480021A631A6B2C
:1054100002F480020292029A1A6B42F004021A63AA
:105420001A6B02F004020392039A1A6B42F008020C
:105430001A631A6B02F008020492049A1A6B42F083
:1054400010021A631A6B02F010020592059A1A6B89
:1054500042F020021A631A6B02F020020692069AAA
:105460001A6B42F040021A631A6B02F04002079274
:10547000079A1A6B42F080021A631B6B03F08003D9
:105480000893089B02230A9301220B920C930C238E
:105490000D930823099309A92A4801F01FF84CF23B
:1054A0000373099309A9284801F018F84FF683738C
:1054B000099309A9254801F011F84FF63F03099314
:1054C00009A9234801F00AF848F23313099309A9FE
:1054D000204801F003F82823099309A91E4800F089
:1054E000FDFF1E4C002565608023A3604FF4007310
:1054F000E3604FF4806323614FF4805363614FF4A2
:105500008043A361E5614FF40033236265620323A6
:10551000A362E5622563124B23603463A6632046D1
:1055200001F0C2F9204601F059F92A460F2138202E
:1055300000F010F9382000F043F90EB070BD00BF44
:105540000038024000080240000C024000100240F7
:105550000014024000180240001C0240A80B00206A
:105560001064024038B51B4C1B4B23601B4D0223BB
:105570002B60072169600422AA60E9602B616B61DE
:10558000AB6100216160A160E260102323614023D0
:1055900063614FF48073A361E1614FF400632362A0
:1055A0004FF480536362A1622046FFF71FFF294634
:1055B000204601F001FF48B1094B01221A7040F268
:1055C0000360FFF7C5FE064B187838BD044B002278
:1055D0001A70F4E7080C0020400100A08C0B00209A
:1055E0008800002000B1704730B587B00E4B1A6BB1
:1055F00042F480721A631B6B03F480730093009B68
:105600000225019501230293039303230493074C7E
:1056100001A9204600F062FF00222946204601F041
:1056200060F807B030BD00BF0038024000200240E3
:1056300000B1704708B501220221024801F051F87B
:1056400008BD00BF0020024030B589B00C460546B9
:1056500070B92C4B1A6B42F480721A631B6B03F403
:1056600080730093009BDCB1012C29D009B030BDC0
:1056700001280AD0234B1A6B42F480721A631B6B09
:1056800003F480730293029BEDE71E4B1A6B42F406
:1056900080721A631B6B03F480730193019BE2E732
:1056A000194B33F815300393002304930593022319
:1056B000069303A9154B53F8250000F00FFFD3E71D
:1056C000114B33F8153003930023059302230693FF
:1056D000A5B14FF40413049303A90C4B53F8250010
:1056E00000F0FCFE0A4B13F9154000220F21204662
:1056F00000F030F8204600F063F8B7E74FF4881365
:105700000493E9E70038024030AF03088C00002022
:1057100028AF030808B5044B33F81010034B53F8B7
:10572000200000F0D7FF08BD30AF03088C00002038
:105730000649CB6823F4E0631B041B0C000200F451
:10574000E0600343024A1A43CA60704700ED00E07C
:105750000000FA0500B5174BDB68C3F30223C3F161
:10576000070CBCF1040F28BF4FF0040C03F1040E2A
:10577000BEF1060F14D9033B4FF0FF3E0EFA0CFCAE
:1057800021EA0C0199400EFA03F322EA03031943BC
:10579000002807DB0901C9B2074B19545DF804FB67
:1057A0000023E9E700F00F000901C9B2034B1954C7
:1057B000F4E700BF00ED00E000E400E014ED00E0DD
:1057C000002807DB00F01F02400901239340024A32
:1057D00042F82030704700BF00E100E00138B0F12E
:1057E000807F0BD24FF0E0235861054AF02182F808
:1057F00023100020986107221A617047012070472A
:1058000000ED00E0BFF35F8F044B5A6A22F4803250
:105810005A620022C3F89420704700BF00ED00E0F8
:1058200040F00100054BC3F894005A6A42F48032FC
:105830005A62BFF34F8FBFF36F8F704700ED00E0E8
:105840004278164BC3F898200378FBB14368134A9B
:10585000C2F89C30017BC37A1B0643EA0173817A4C
:1058600043EAC143417B43EA8143817B43EA4143AD
:10587000C17B43EA0143417A43EA0123017A43EAC7
:10588000410301780B43C2F8A0307047034B00225C
:10589000C3F89C20C3F8A020704700BF00ED00E0D3
:1058A000002800F0FF8170B582B00446036813F051
:1058B000010F29D0954B9B6803F00C03042B1AD0E1
:1058C000924B9B6803F00C03082B0FD06368B3F571
:1058D000803F40D0002B54D18C4B1A6822F4803288
:1058E0001A601A6822F480221A6039E0874B5B68DC
:1058F00013F4800FEAD0854B1B6813F4003F03D0EC
:105900006368002B00F0D081236813F0020F74D07D
:105910007E4B9B6813F00C0F5ED07C4B9B6803F0B2
:105920000C03082B53D0E368002B00F08980774AE2
:10593000136843F00103136001F094FB0546734BB9
:105940001B6813F0020F72D101F08CFB401B022880
:10595000F5D90320ADE16D4A136843F48033136039
:1059600063682BB301F07EFB0546684B1B6813F49C
:10597000003FC9D101F076FB401B6428F5D9032014
:1059800097E1B3F5A02F09D0604B1A6822F480325A
:105990001A601A6822F480221A60E1E75B4B1A68E9
:1059A00042F480221A601A6842F480321A60D7E703
:1059B00001F058FB0546554B1B6813F4003FA3D07C
:1059C00001F050FB401B6428F5D9032071E14F4BD7
:1059D0005B6813F4800FA6D14C4B1B6813F0020FC9
:1059E00003D0E368012B40F06181484A136823F03B
:1059F000F803216943EAC1031360236813F0080F19
:105A000046D0636983B3414A536F43F00103536740
:105A100001F028FB05463D4B5B6F13F0020F37D1B9
:105A200001F020FB401B0228F5D9032041E1374A51
:105A3000136823F0F803216943EAC1031360DCE72C
:105A4000324A136823F00103136001F00BFB054693
:105A50002E4B1B6813F0020FCFD001F003FB401B4D
:105A60000228F5D9032024E1284A536F23F00103CB
:105A7000536701F0F7FA0546244B5B6F13F0020FF2
:105A800006D001F0EFFA401B0228F5D9032010E1FF
:105A9000236813F0040F7DD01C4B1B6C13F0805F48
:105AA0001ED11A4B1A6C42F080521A641B6C03F020
:105AB00080530193019B0125154B1B6813F4807FD4
:105AC00010D0A368012B25D0002B3BD10F4B1A6FB0
:105AD00022F001021A671A6F22F004021A671EE010
:105AE0000025E9E70A4A136843F48073136001F064
